:10000000F03F00001500001000000000000000009C
:10001000002070477CB51B48292149060862012051
:1000200008600020486138200863092088600F209C
:100030000861002008613F20C861FE20C8600420DC
:10004000486000BF00BF00BF00BFFFF7E1FF0646EA
:100050000D4840680090002001900B4D002405E001
:10006000A0002858A100019A5050641C282CF7D3F6
:100070000021009848600098804700BF00BF00BF83
:1000800000BF7CBDA0FF00000004001000000000C5
:100090000000000000000000000000000000000060
:1000A0000000000000000000000000000000000050
:1000B0000000000000000000000000000000000040
:1000C0000000000000000000000000000000000030
:1002C000000300000000000000000000000000002B
:1002D0000003000000B900000003000000B90000A6
:1002E00000C000000004000001000100160116011A
:1002F0000101424C414445336100000001001600F9
:1003000000000000000000000000000000000000ED
:1003100000000000000000000000000000000000DD
:1003200000000000000000000000000000000000CD
:1003300000000000000000000000000000000000BD
:1003400000000000000000000000000000000000AD
:10035000000000000000000000000000000000009D
:10036000000000000000000000000000000000008D
:10037000000000000000000000000000000000007D
:10038000000000000000000000000000000000006D
:10039000000000000000000000000000000000005D
:1003A000000000000000000000000000000000004D
:1003B000000000000000000000000000000000003D
:1003C000000000000000000000000000000000002D
:1003D000000000000000000000000000000000001D
:1003E000000000000000000000000000000000000D
:1003F00000000000000000000000000000000000FD
:10040000F03F00008F3200100000000000000000EC
:1004100000000000000000000000000000000000DC
:1004200000000000000000000000000000000000CC
:100430000000000000000000F1050010E3AA001019
:10044000212E00108D3200108D3200108D320010E0
:100450008D320010AF900010AD900010211C0010E4
:100460008D3200108D3200108D3200108D32001050
:100470008D3200106F0E0010431C0010651C001020
:10048000871C00108D3200108D3200108D3200104C
:100490008D3200108D3200108D3200108D32001020
:1004A0008D3200108D3200108D3200108D32001010
:1004B0008D3200108D3200108D3200108D32001000
:1004C00003B40148019001BDC100000003B401481C
:1004D000019001BD013D000000F002F800F040F87D
:1004E0000CA030C8083824182D18A246671EAB4649
:1004F00054465D46AC4201D100F032F87E460F3ED4
:100500000FCCB6460126334200D0FB1AA246AB46BA
:100510003343184748D80000A8D80000103A02D347
:1005200078C878C1FAD8520701D330C830C101D594
:1005300004680C607047000000230024002500269A
:10054000103A01D378C1FBD8520700D330C100D58F
:100550000B6070471FB5C046C0461FBD10B510BD2B
:100560000CF0F8F81146FFF7F5FF02F0B4FE0CF0BE
:1005700010F903B4FFF7F2FF03BC02F0D6FE00004F
:10058000FCB40022002300240025002600270629B1
:1005900002D4FCC00639FAE7002902D004C00139B0
:1005A000FAE7FCBC7047000002B472B60178013172
:1005B000017062B60139080002BC704702B472B61D
:1005C00001780139017062B6080002BC7047000072
:1005D00062B6704772B670471C3880F3098870475E
:1005E000014802490160704704ED00E0000000107E
:1005F000114B1968114A1268914216D0EFF3098025
:1006000020380860F0C044464D4656465F46F0C06C
:100610001A6010681030F0C8A046A946B246BB4622
:100620002038F0C8103080F30988054B002018707E
:100630000420404200470000300300002C0300006B
:100640001F03000070B505460C46164602E00FCCAD
:100650000FC5103E102EFAD2082E02D303CC03C5CC
:10066000083E042E07D301CC01C5361F03E02178D4
:100670002970641C6D1C761EF9D270BD10B503463E
:1006800000201A460121890700E089089142FCD820
:1006900008E04418944203D8141A621A4C00201837
:1006A000400889080029F4D110BDFFB585B0074680
:1006B0000D461C4600200190802F06D08B2F0DD0B8
:1006C000A02F20D0A22F2ED125E0002D05D1012072
:1006D0008007019060006946888125E0042D11D1D2
:1006E000E007C00F0019C01C4000F7494018C01CAB
:1006F000800880000190E007C00F0019801C4000B6
:100700006946888110E0052D04D1F0480190600011
:100710006946888108E0062D04D1ED48019060000B
:100720006946888100E000BF00BF019800281CD006
:10073000E84E242070800020706047203070082030
:100740007070E448083002900221684681746100AC
:10075000C1814474694607980874002101A802F019
:10076000CDFC0021012002F021FB09B0F0BDFFB556
:1007700083B01C460E9D02950D9D01950F9D009521
:10078000109DED07ED0F002D7AD00626109D354007
:10079000002D50D000204AE04600039DAE5B47008C
:1007A000049DED5FED10751B29B24500535F994222
:1007B0001EDD0226109D3540002D06D04500515308
:1007C000CD1A2DB24600A55330E04500555F019E7D
:1007D0007543029E4E43AE19009D2E4135B2460030
:1007E00095534500555BED1A2DB24600A5531DE00B
:1007F0000426109D3540002D06D045005153CD1ADA
:100800002DB24600A55311E04500555F019E75438A
:10081000029E4E43AE19009D2E4135B246009553BF
:100820004500555BED1A2DB24600A553401C0C9DAA
:10083000A842B1DB9DE000201DE04600039DAE5BB9
:100840004700049DED5FED10751B29B24500535F15
:100850004500555F019E7543029E4E43AE19009DB3
:100860002E4135B2460095534500555BED1A2DB229
:100870004600A553401C0C9DA842DEDB79E0FFE753
:100880000626109D3540002D50D000204AE046003D
:10089000049DAD5FEE104700039DED5B751B29B213
:1008A0004500535F99421EDD0226109D3540002D04
:1008B00006D045005153CD1A2DB24600A55330E065
:1008C0004500555F019E7543029E4E43AE19009D43
:1008D0002E4135B2460095534500555BED1A2DB2B9
:1008E0004600A5531DE00426109D3540002D06D07E
:1008F00045005153CD1A2DB24600A55311E04500D5
:10090000555F019E7543029E4E43AE19009D2E41D8
:1009100035B2460095534500555BED1A2DB24600A1
:10092000A553401C0C9DA842B1DB22E000201DE035
:100930004600049DAD5FEE104700039DED5B751B07
:1009400029B24500535F4500555F019E7543029EE5
:100950004E43AE19009D2E4135B2460095534500D9
:10096000555BED1A2DB24600A553401C0C9DA842C4
:10097000DEDB07B0F0BDFFB583B01C460E9D0295CF
:100980000D9D01950F9D0095109DED07ED0F002D1C
:100990007AD00626109D3540002D50D000204AE028
:1009A0004600039DAE5B8700049DED59ED10751B5D
:1009B00029B24500535F99421EDD0226109D354045
:1009C000002D06D045005153CD1A2DB24600A55337
:1009D00030E04500555F019E7543029E4E43AE19BF
:1009E000009D2E4135B2460095534500555BED1AEA
:1009F0002DB24600A5531DE00426109D3540002D64
:100A000006D045005153CD1A2DB24600A55311E032
:100A10004500555F019E7543029E4E43AE19009DF1
:100A20002E4135B2460095534500555BED1A2DB267
:100A30004600A553401C0C9DA842B1DBA5E0002058
:100A40001DE04600039DAE5B8700049DED59ED104F
:100A5000751B29B24500535F4500555F019E7543E4
:100A6000029E4E43AE19009D2E4135B2460095536D
:100A70004500555BED1A2DB24600A553401C0C9D58
:100A8000A842DEDB81E0FFE70626109D3540002D01
:100A900058D0002052E08600049DAD59EE1047006A
:100AA000039DED5B751B29B24500535F994226DD1E
:100AB0000226109D3540002D0ED045005153CD1A11
:100AC0002DB24600A55338E0903B004090590040BD
:100AD000705B0040005D00404500555F019E75431E
:100AE000029E4E43AE19009D2E4135B246009553ED
:100AF0004500555BED1A2DB24600A5531DE00426B6
:100B0000109D3540002D06D045005153CD1A2DB211
:100B10004600A55311E04500555F019E7543029EB6
:100B20004E43AE19009D2E4135B246009553450007
:100B3000555BED1A2DB24600A553401C0C9DA842F2
:100B4000A9DB22E000201DE08600049DAD59EE10D7
:100B50004700039DED5B751B29B24500535F4500BF
:100B6000555F019E7543029E4E43AE19009D2E4176
:100B700035B2460095534500555BED1A2DB246003F
:100B8000A553401C0C9DA842DEDB07B0F0BD30B57C
:100B9000002A07D0CC07E40F64185D006419364DB5
:100BA0002C7003E05C006418334D2C704C1E334DE8
:100BB0002C70441E324D2C702F4C24786442641EDD
:100BC00064B2304D2C700024E4436C702A4C2478BD
:100BD000641E64B2AC70284C2478644264B2EC7039
:100BE000254C247864B22C71234C247801252C1BCD
:100BF00064B2244D6C710124AC711F4C2478641CC8
:100C000064B2EC7130BD70B505460C4616461A4804
:100C1000017828460AF0C7FF207020781649097825
:100C20004843281A307070BD0246002A09D0144883
:100C30000078824205D0002903D010480078814214
:100C400001D1012070470020FCE702460023002A62
:100C500003D00B480078824200D15B1C002903D0EE
:100C600006480078814200D15B1C022B01D1012093
:100C700070470020FCE700000002000001020000B5
:100C80000202000003020000012110B549034804DC
:100C9000FFF776FC12490020087048708870114AEE
:100CA000012111701049088010490880104908700E
:100CB00010BD10B5FFF7E8FF0E4800218174818256
:100CC00005F049F904F090FA00F093FE0A490B4848
:100CD00005F089FF02F063FC05F052F810BD00003A
:100CE0000C0200003B020000CC0300005602000092
:100CF00069020000800E0000483A0000843A0000BB
:100D000010B504460020206422464032606490778B
:100D10000123D0779B07E3615B4B63635B4BA3636A
:100D20005A4B0833E363A0649081012222651023AB
:100D3000912213552061002901D000F05EFE544835
:100D40004078208310BD10B5524C0021207809F066
:100D500055FA002802D0002004F00CF9207809F0A0
:100D6000FFFA012010BD10B5112806D0122803D1BA
:100D70004949082002F01AF810BD47490420F9E754
:100D8000C00601D50120704700207047434800F09D
:100D9000FEFE01F02FF84248007809F0E1FE09F06C
:100DA000FFFF0021084609F043F93A4C0121207069
:100DB0003948FFF7A5FF0021084609F039F96070AE
:100DC0000121084609F034F93649314D0870697837
:100DD0000C2001F06DFE304C334E40342E4800F0B4
:100DE000FBF80020305E002802DB00F0B7FDF5E7DD
:100DF000A07F002803D00220A0770AF0EAFA287822
:100E0000FFF7BEFF00280ED1687800280BD02248DB
:100E10008030407C0009000110280CD0802810D0C0
:100E2000002004F0A7F82878FFF79DFFFFF78BFF5D
:100E30000028FBD0D2E780221021174800F02CF9BF
:100E4000F1E7607F002808D00021042001F0AEFF08
:100E5000114800F0DEFB002060770F4800F048F9F1
:100E6000124904200856124909F050FFDBE710B57B
:100E700009F062F80748007809F0A0FA0D490F2040
:100E8000C86209F05EF810BDE0230040005D00403C
:100E9000103A00006A020000000E00009037004087
:100EA000E5CF00100B0200006E020000000B0000F6
:100EB000B43A000080000052F8B54A4E07460125BA
:100EC00049493570782048704848494CC5700570CC
:100ED0002168FF20887220684021C0680AF057FE10
:100EE0000020444964223B000BF0B7FC08050B15B9
:100EF000181414141F14086148618861086248625C
:100F000011E008614861886108624862886221686E
:100F1000FA204880F8BD20684280F8BD0861086268
:100F20004861486288618862F5E7086148618861C4
:100F300008624862886275703070F8BDF8B5044682
:100F40008034E18A2C4B0427CA1A274D0026994287
:100F500019D005DC294A89181ED0012939D10DE0A4
:100F6000012A26D00B2A34D10021042001F01EFFD3
:100F70000021C943012002F0F1F82AE07D200001A0
:100F800002F0F8FA25E0208B062822D808202870E5
:100F90001449208B48801CE000F04EF92873FF2193
:100FA000532000064160076241628662C6620163A7
:100FB0000FE0012129734030417711480170114839
:100FC0001E2101804180FA218180C180077447740D
:100FD0002E70E6820120F8BD10B5FFF7AFFF0120AB
:100FE00010BD00006C020000103A0000C83A00007A
:100FF000502700004000005204080000FFF7FFFFE8
:1010000069020000843A000053200006816AFC2235
:101010001143816204F09FFF04F0E6F800F0E9FC60
:101020001649174805F0DFFD02F0B9FA08F02AFE6C
:10103000144C154E154D1649207809F0DFF800289C
:1010400002D0002003F096FF207809F089F90F48BC
:10105000403800F087F80746307809F089F90D48E4
:1010600000780028E7D1A87F0028E4D1002FE2D043
:101070000021022001F09AFEDDE70000483A00005E
:10108000843A00006B0200000B020000400E0000DA
:1010900080969800103A000010B5034680331C4635
:1010A0005A7409022B4B1143CA1A99421AD00ADC0E
:1010B000294A891A11D001225203891A0DD02748D2
:1010C000C14205D107E0FF2A05D0FF3AFD2A04D02E
:1010D000002003F04FFF012010BD00F0D0F8812068
:1010E0006074F8E71E4841780B2001F0E1FCF2E75C
:1010F00010B504468030407C81280AD083280ED069
:1011000084281BD0852807D0002003F033FF01205E
:1011100010BD8322812119E08022852116E020461E
:1011200000F020F9A06C012802D9842283210DE06F
:101130000B490B20497801F0BBFCE8E7204600F0A2
:1011400011F9A06C0028E2D1832284212046FFF708
:10115000A3FFDCE78483000080100000FDAEFFFFEA
:10116000103A0000F1B503F0E7FF04F068F82849F1
:10117000264D0B78274928780A780421FFF795FA3D
:10118000254804F0E3F8254E242330702448224CEF
:10119000C35E244A2449E06804F0AAFC234A31785B
:1011A000204604F04FFB30702C21615E606807F030
:1011B000DAF907F022FD03F0DAF91D490A68521C3A
:1011C0000A601C490A78002A1ED000240C7000F026
:1011D0000DFC811C00221023047012260DE00C80EF
:1011E0004C808C808C714A720B72CF793743CF71EF
:1011F00007780A317F1C0770521CAF789742EED8EF
:101200004470009900784C64F8BD0000103A00006A
:101210004903000048030000E0030000480200000A
:10122000843A0000CC030000180400004C020000C7
:101230000C3A00006802000010B50120FF23532182
:1012400009064B6004220A624B6200228A62CA626B
:101250000B630A62FD244C604C620224CC608C61FA
:101260008A62CA620B638C68CB620A63896810BDAC
:1012700010B50321052001F01BFC012010BD10B5A5
:1012800004460321052001F013FC0D4809F065FD1B
:10129000204600F0BEF9002040346077012010BDE8
:1012A0000120704710B50321052001F001FC012049
:1012B00010BD10B5084609F05BF810BD704700007E
:1012C000B43A0000904203DD884200DC08467047D3
:1012D0009142FBDC10467047F0B50025FD4BFE4EF9
:1012E0002946FE4C04E048001A5A491C1A52C9B259
:1012F00020788142F7D3002104E04A009A5E551914
:10130000491CC9B28142F8D3002726E0002F09D03A
:10131000401E874210D178008446C01840383C22D5
:10132000825E0FE00422022100209A5E595E185E60
:10133000FFF7C8FF30800EE078008446C018022214
:10134000825E40383E21415E6046185EFFF7BAFF7C
:101350000146604631527F1CFFB220788742D5D3C8
:101360002846F0BDF0B506469DB00321052001F0EA
:101370009FFBE120800001F0C3FFD94D287808F0E1
:10138000EFFF09F08EFE6421287808F037FF00286F
:1013900002D0002003F0EEFD287808F0E1FF09F00C
:1013A000EFFB00283BD009F033FECC4C0222217821
:1013B000CC4808F0A7FBCC4904200856CB4909F0DB
:1013C00036FC6421287808F019FF002802D000209C
:1013D00003F0D0FD287808F0C3FF09F0A9FE6421CE
:1013E000287808F00BFF002802D0002003F0C2FD8F
:1013F000BF4D2378287828220021FFF756F9287856
:10140000237801220521FFF750F909F0B9FB0028E4
:1014100008D000F0E7FD2878862806D00BE009F018
:101420008BFDC2E700F0C1FDF5E700F0FBFD0021F8
:10143000012001F0BBFCAF486421007808F0DEFE1B
:10144000002802D0002003F095FDAC48AA4F037895
:101450000221F81802794156F85600F0D6FD287896
:101460008A2805D100F0E9FD0021012001F09EFC51
:1014700004F0EAFFA448A24AA249007803231278A4
:10148000097801AF0FC720780090924B9F48A03396
:10149000904A9E49A038FFF76EFA9D4804F08AFDF5
:1014A000FFF71AFF9B49904F0860387900280DD14B
:1014B000012320780393032204216B4607C3964837
:1014C000964A03788349914805F0D6FA94498248B0
:1014D000086090487D2100680901884240DB9148FE
:1014E000007800283CD008F0C4FB2878237801223B
:1014F0000621FFF7DAF804F0BFFD8B48817D002953
:101500001DD0C07D00281AD08848217802783B7908
:101510000E91874884490D920B900C932C2214391C
:101520006846FFF78FF8804820380EC80FA804F0EF
:10153000CBFF7D4838220FA92038FFF783F800F051
:1015400086FD7C4801783046FFF7B3FE0021304627
:10155000FFF7B4FE306C401C306401201DB0F0BDBC
:101560006F4808F016FC6E4808F082FCBDE7FFB536
:1015700081B0002421460A9800F02AFBC107C90F58
:101580000818049EC0B246432046019900F020FC92
:1015900000902046029900F01BFC0746002509E058
:1015A0000098A90040580399C0000AF0FCFA6900AD
:1015B00078526D1CB542F3DB641CE4B2042CD9D321
:1015C00005B0F0BDFFB581B000242146049800F0BD
:1015D000FFFAC107C90F0818C6B20398029946431B
:1015E000204600F0F5FB05462046019900F0F0FB8F
:1015F0000146002006E082004700AB58CF5FDB19B0
:10160000AB50401CB042F6D3641CE4B2042CDCD3D3
:10161000D6E7F0B585B00321052001F049FA08F0BE
:1016200067FA2E4E414F00242D4D287808F098FE81
:1016300009F0A6FA002831D009F0EAFC64212878E4
:1016400008F0DCFD002802D0002003F093FC28788D
:1016500008F086FE09F06CFD6421287808F0CEFDC4
:10166000002802D0002003F085FC09F089FA002848
:1016700017D000F0B7FC022C16D373218901337800
:101680003A784810FFF79EFF002000901F483378FB
:1016900001221049A03805F092F94FE009F04CFC06
:1016A000CCE700F082FCE6E7002C47D10025E9B248
:1016B000307800F08DFA397802464A437321E8B257
:1016C000890100F07CFB6D1C042DF0DBFF21413112
:1016D000004831E0705B0040E00E0000490300006C
:1016E00015030000E0230040000B0000B43A0000A6
:1016F000103A00000B0200002C3A00000D0200001E
:10170000EECF0010EDCF0010ECCF0010305A0040AB
:101710006820000018020000EFCF0010B05C00400D
:10172000202400003A020000D80D00004803000009
:10173000F00D00006B0200000AF029FA641CE4B20C
:101740000A2C00D270E73078009073203B78082292
:101750002A498001FFF70BFF002303223178012083
:101760006C460FC4274C042308222549204605F067
:1017700043F9A02120460AF00AFA234D00243878C4
:10178000142148434208E0B2294600F018FB641CCB
:10179000042CF4DB0321062001F08AF901200FE775
:1017A00010B51A4B0021174A08461B7807E0440081
:1017B000145F0A2C01DD491CC9B2401CC0B298421A
:1017C000F5D31E2901D9012010BD002010BD10B590
:1017D000029C904202DD884205DC01E0914201DD7D
:1017E000084600E01046A34200DC2346984200DC95
:1017F000184610BD884200DC08467047901500006E
:10180000305A0040705B0040F023000049030000A4
:1018100070B5694A694C11020020694D03E043002C
:10182000D65ACE52801C23782E7873438342F6DC3E
:1018300070BDF3B581B001270321052001F038F90F
:10184000029810255F4E0024002833D0012831D0A3
:1018500002282FD0032830D0002700210198FFF75D
:101860004FFA594D287808F07BFD09F0F6FB64210A
:10187000287808F0C3FC002802D0002003F07AFB8F
:101880005248C460287808F06BFD09F0E6FB64213B
:10189000287808F0B3FC002802D0002003F06AFB8F
:1018A0004B484D4904704B4804700020C0430880E9
:1018B0003846FEBDFFF700FB03E0FFF7FDFA4348A3
:1018C000C4603570C9E700214448B2E701214348AC
:1018D000AFE770B5424D3D4C002620682861286274
:1018E000606868616862A068A861A86202213B48DC
:1018F000FFF79FFF012E1AD031480078C107C90FAA
:1019000008182E49097848434200012189072A48CE
:10191000FEF798FE2068761CC04320606068C043D4
:101920006060A068C043A060022ED6DB70BDFFF7E8
:101930006FFFEFE710B5FF2029214906C86029484D
:10194000102181630163032001F011F90321234871
:10195000FFF76FFF002001F00AF910BD10B51E4817
:101960000024045F002C06D0012C07D0022C08D0E4
:10197000032C0BD108E0FFF7A6FF07E0FFF7A6FF57
:1019800004E0FFF7A6FF01E0FFF7D4FF0720FFF711
:1019900093FA01211148FFF7B3F9042C07D0084846
:1019A00000210378054802788020FEF77EFE054975
:1019B0000120087310BD00000000405E48030000D5
:1019C00049030000103A00001503000074020000F3
:1019D0006C020000700200006E020000000E0000A9
:1019E00040000052C0030055224870472148801E25
:1019F0007047214900200860704730B51F48002219
:101A000001781C48723001701D49097841701D49E8
:101A10000B8D83824B8DC3828B8D0383CB8D438350
:101A20000C4620340346257C20339D70647CDC709A
:101A30000B8F83848B18203384189B7C521C237754
:101A4000062AF7D300210A4604E04B001B181A713E
:101A50005A71491C83788B42F7D830BD0020064963
:101A60000246091D0B18401CC0B21A730C28F9D38A
:101A7000704700001A3B00000C3A000048030000C9
:101A800049030000C00200100A04120E334B120476
:101A9000090618401043090D08437047F0B59C46ED
:101AA00093046446DB0CA4052343059C8500E405F0
:101AB000A40A23432A4C88006659FF3081303350F2
:101AC000082901D2002000E004200126130CB603EF
:101AD000B34201D1002300E002235204D60F42009A
:101AE000891A1E4389000F228A40074663595837D6
:101AF000BE46DF598E40974337431E467346F75024
:101B0000675903466033FE58BE46059F9643FF045F
:101B10003F0F8F403E437746FE506459683023584C
:101B2000934362469204120F8A4013432350F0BD40
:101B30000D239B06C91801604260704710B59204DE
:101B4000D20C9B05029C1A43E3059B0A1A430D2302
:101B50009B06C9180160426010BD00000FF000FF35
:101B6000FCCA001008B500902920400641690222F5
:101B7000114341618169FF22114381614169FD2265
:101B8000114041614169012211434161FEE7032196
:101B90008907012210B54118D203914202D30020D7
:101BA000FFF7E0FF8D4C002121706170A160606043
:101BB00008468B4A01218300D3581961401CC0B2EA
:101BC0000428F8D30021012008F032FAA07010BDDB
:101BD000C208D200821A1206824B920DD218C00897
:101BE000515C40000818C0B2704710B57B49002016
:101BF00014317A4C0860E078182148437A4940183B
:101C00008268002A04D02169E0689047002806D045
:101C100008F092F9A07808F0D1FB08F092F910BD15
:101C20006F4908684069C0070AD0096801208861C7
:101C30006A491431087008686C49884200D1D4E7B9
:101C40007047674948684069C0070AD04968012061
:101C5000886162491431487008686449884200D13B
:101C6000C3E770475E4988684069C0070AD0896841
:101C70000120886159491431887008685B4988429D
:101C800000D1B2E770475649C8684069C0070AD01A
:101C9000C9680120886151491431C87008685349E6
:101CA000884200D1A1E7704770B54C4C05462078BA
:101CB0000A2801D301200BE06969CA0701D002207C
:101CC00006E0A268891801229202914202D90320FB
:101CD000FFF748FF18214843434E0A46801929461A
:101CE000FEF7B0FCA16860681822401821785143C3
:101CF000891908616A69296909F0E1FE2078401CA8
:101D0000C0B220706969A2688918401EA16070BDC8
:101D100010B50C4631490978814202DC0420FFF7F6
:101D200021FF1821484330490B58002B03D011469E
:101D30002046984710BD012010BDF8B5274C054638
:101D4000207816460F46A84201DC042019E060788E
:101D5000002801D0052014E0E570E7602661A07836
:101D600008F0FEFA182045431F4831462D186A68CE
:101D7000384690476421A07808F040FA002802D045
:101D80000620FFF7EFFE1549002014310860EA68CD
:101D9000002A02D03146384690470020F8BD0F484F
:101DA0001821C078484310494018006970470B4813
:101DB0001821C07848430C4940184069704710B555
:101DC0000B4B8000185840181146FEF7D9FB10BD88
:101DD000074A800010584018704700008402000035
:101DE000FCCA00101CCB0010800F00000101010193
:101DF0000CCB0010F8B5FE4FFC48FE4CF860207884
:101E0000FD4EC107C90F0818788230783875002553
:101E100029462078FFF7DCFE79190872C107C90F3F
:101E2000401869006D1CEDB27852042DF0D3732078
:101E300040013882012078752078F04AC107C90F27
:101E400009184800EA4D80181835E860820703D069
:101E5000C01C80088000E860891C69823078287581
:101E6000002739462078FFF7B3FEE9190872C10749
:101E7000C90F401879007F1CFFB26852042FF0D3BD
:101E8000BB208001288200276F75DD48FFF70CFF1B
:101E9000DC4D0121A860D64889072C3801602178E3
:101EA000CA07D20F521882800122C28073225201C7
:101EB00042810781072202738273D14A3032026164
:101EC0003432426132784273C1730776CC48483865
:101ED000FFF7EAFEC64A2860103A11461C39FFF7A0
:101EE00017FFC3487321490130300180C649418042
:101EF000C649818073218901C18007818910418190
:101F0000BB2189018181032181730821C17331784B
:101F1000C17421780175BA483038FFF7C5FE686092
:101F2000B348BA4948300180317881712178C17154
:101F300073214780090181800772B1481830FFF78B
:101F4000B3FEE860AA48B1496830018031788171F8
:101F50002178C171AE490161AE49C16073214780EA
:101F600009018180A6481838FFF79EFE2861F8BD58
:101F700010B5A9489E49428868314A818088088105
:101F8000A04800220069FFF7D8FE10BD984810B5A0
:101F90004830A2490161891EC16002460146994844
:101FA0001432C068FFF7C9FE10BD914810B5072173
:101FB0002C3801738173924902463031016134310A
:101FC000416101468F481C320068FFF7B6FE10BD24
:101FD000874A10B5103A8B4811461C390068FFF744
:101FE000ACFE10BD824810B507212C3801738173F7
:101FF00083490246303101613431416101468148F3
:102000001C320068FFF799FE10BD794B10B53033D4
:10201000187459749A747B48002219464068FFF777
:102020008CFE10BD10B573207149400108827548BF
:1020300000228068FFF781FE10BD10B56C4973481F
:102040000882704800228068FFF777FE10BD10B547
:1020500067496C48002218318068FFF76EFE10BD9A
:10206000F0B585B00446FFF79AFE05460120A9B2F7
:102070000027C007081803910290207D3946FFF71A
:10208000A7FDC107C90F0818C0B20190E07CBE00CF
:102090004006410C01980143614880590164FFF7F3
:1020A00086FE039941185E48805941605C49029858
:1020B000895988605A490020895948640126009648
:1020C000014622883846019BFFF7E8FC00966288AB
:1020D00001213846019BFFF7E1FC0096A28802210E
:1020E0003846019BFFF7DAFC0096E2880321384668
:1020F000019BFFF7D3FC0096228904213846019BFF
:10210000FFF7CCFC0096628905213846019BFFF75A
:10211000C5FC0096A28906213846019BFFF7BEFC4C
:102120007F1CFFB2042FA8D30F2161566868FFF708
:10213000ABFC68600E2020564142E868FFF7A4FC23
:10214000E860112161562869FFF79EFC2861102183
:102150006156A869FFF798FCA861122020564142F9
:10216000286AFFF791FC28622D49002082008A58D6
:102170001660401CC0B20428F8D3012005B0F0BDA1
:10218000F0B585B00446FFF70AFE0190012180B248
:102190000026C907039040180290E0793146FFF706
:1021A00017FDC107C90F0818C7B2A0791C4940061E
:1021B000B500400C495938430864FFF7F8FD03990E
:1021C000411817484059416015490298495988609B
:1021D0001349002049594864012500950146228889
:1021E0003B463046FFF75AFC00951BE0005D00407F
:1021F0009C1000004903000048030000963B00408B
:102200002CCC00109C02000090150000F023000070
:1022100080200000C4210000003A0000FA0D0000F8
:10222000FCCA001062883B4601213046FFF736FCAD
:102230000095A288002302213046FFF72FFC00956D
:10224000A08879004218002303213046FFF726FCBE
:102250000095A088B9004218002304213046FFF7FA
:102260001DFC0095A188062078430A18002305214B
:102270003046FFF713FC0095A2883B460621304606
:10228000FFF70CFC761CF6B2042E86D32089401E84
:1022900001B201984068FFF7F7FB019948600A20F6
:1022A000205EC1430198406AFFF7EEFB0199486246
:1022B000FE49002082008A581560401CC0B20428E4
:1022C000F8D301205AE7FEB500218183C1838161E3
:1022D00004460D464161002001900090E07900998C
:1022E000FFF776FC0646C007C00F8019C7B27321FE
:1022F00009010098FFF76CFD6F4379004118002D2C
:102300000CD0022D05D0012D2BD020461E300022EE
:1023100031E0019A0020920094461FE0019A0020CB
:10232000920094460AE042008700E3688A5E6744B0
:10233000DA5163699A18401CC0B26261B042F2D3AC
:102340001BE042008A5A87005242236912B2674456
:10235000DA51A3699A18401CC0B2A261B042F0D30E
:102360000BE020461C30D2E757000388CF5BDB1917
:10237000521C0380D2B2B242F6D30198801900B247
:1023800001900098401CC0B200900428A6D36D1C98
:10239000EDB2042D9FD30120FEBDF0B5044687B0F9
:1023A00000200290FFF7FBFC0190607D00210028D7
:1023B00008D0E0682422428047224160027008224F
:1023C000427002920198002581B2081D05900120FB
:1023D000C00708182F460490217D6019007A49062D
:1023E000490C0843B149AE0089590864AF4900203F
:1023F000895948640120009068000390235A228A7A
:1024000000212846FFF74AFB012000900298E1686E
:1024100038180A18638A01212846FFF73FFB039802
:10242000A249205A89594000C01987B205984860CE
:102430009E490498895988606D1CEDB2042DCBD358
:1024400001989B4901600020984901228300CB58E4
:102450001A60401CC0B20428F8D3012007B0F0BDB8
:10246000FEB504460191FFF79AFC064601992069E2
:1024700088600199E06848608E4931608E497160DA
:10248000207A08278D4A8E49022804D0B260207A2B
:102490000C27012801D0F1513F1D01210025B0B2C8
:1024A000C90740180290E0792946FFF791FB01998E
:1024B0007E4A4855C107C90F0818C3B2A079400623
:1024C000410C1943A80012581164784A002112588F
:1024D0005164764A029912589160744AF119105861
:1024E00089B2416001200090228800212846FFF730
:1024F000D5FA012000900146628800232846FFF7A4
:10250000CDFA01200090A288002302212846FFF77F
:10251000C5FA6D1CEDB2042DC5D30020634A01211C
:102520008300D3581960401CC0B20428F8D301209E
:10253000FEBDF8B50546007A0C4602281BD0614F57
:10254000002669883046FFF743FC02460020A35D61
:1025500006E04100515EB94200DA0F46401CC0B2AD
:102560008342F6D8761CF6B2042EEAD36068078060
:10257000287A012819D0534F7F420026A988304677
:10258000FFF726FC02460020A35D06E04100515EF5
:10259000B94200DD0F46401CC0B28342F6D8761C1B
:1025A000F6B2042EEAD3A06807800120F8BDF0B58A
:1025B0000024817BA44627468E462BE000231A4642
:1025C0001946067B15E005692D5D954008322943C3
:1025D000D2B2202A0AD365464269AD0052598A42D6
:1025E00011D16146491C8C46002211465B1CDBB2AE
:1025F000641C9E42E7D8002A0AD0624643699200D2
:102600009A588A4201D00020F0BD6146491C8C4690
:102610007F1CFFB2BE45D1D80120F0BD00B5FFF749
:10262000C6FF002800D0012000BDF0B585B00C46E3
:102630000546FFF7B4FB0290012060720027277364
:10264000287BC01C8008E072A97B687B09F0A1FA96
:10265000A072A97B4843697B884205D0081A207282
:10266000A07A401CA07200E027720298002681B276
:10267000081D04900120C007081801960390E87B0C
:102680003146FFF7A5FAA1190871C107C90F401813
:10269000A05500200549B700C9594864E888009052
:1026A00029680198AB880A1800210DE0FCCA0010C7
:1026B0000010C0230010000C0020000C101000219E
:1026C00020204021FF7F00003046FFF7E7F9287BFC
:1026D00001282FD0A17A2A8941434806A15D400CE8
:1026E0000843DA49C9590864012000900146A35DF6
:1026F0003046FFF7D3F9D5490498CA595060CA59F2
:1027000003989060A05D761C42000198F6B2101804
:1027100080B20190042EB2D30298CD4A026000200C
:1027200001228300CB581A60401CC0B20428F8D3A1
:10273000012023E5697B6A894906A05D490CCFE742
:10274000F8B517460C460646002501200090607B30
:10275000A17B7B5D401A8019584361894000421873
:10276000E8B20121FFF79AF96D1C042DEDD3FA7A36
:10277000B64D1046724380188646002310E0910043
:102780008C4600209900803166696746F6598700BB
:10279000EF597E50401C0428F6D35B1CDBB2521C60
:1027A0007245ECD3F8BDF8B517460C460646002531
:1027B000012000907B5DA17B18464B4361897043EB
:1027C00040000A18E8B20121FFF768F96D1C042DDA
:1027D000EED3FA7A9D4D104672438018864600214A
:1027E00010E093009C4600208B00803366696746AA
:1027F000F6598700EF59FE50401C0428F6D3491CB7
:10280000C9B2521C7245ECD3F8BDFEB50C46054664
:10281000FFF7C5FA0746287B032101287ED0607A9E
:102820000128207B1BD0401CC0B22073AA7B9042A1
:1028300074D222462946FFF783FF002001228349F4
:10284000BDB2D307C4002C19E61884000F59BE602E
:102850000C592260401CC0B20428F3D37DE0401C18
:10286000C0B22073AA7B90423DD8012833D1207A90
:102870000028A07A01D0401EC0B200264006400CBD
:102880000290B8B2019001200090A35D287B2A89B4
:10289000434300213046FFF701F9A15D02986B4ADE
:1028A0000143B00012581164684918220958AA5609
:1028B0004A64297B674BA25D090419430A43F1006E
:1028C0007A50019A5118614A091D10584160761CCE
:1028D000F6B2042ED7D3207B2246401EC0B2294632
:1028E000FFF761FF28E0207A002838D0101A207303
:1028F000022060720026A05D5449B2008958FF3062
:1029000001300864207B22462946FFF719FF012089
:102910000090A35D287BA17A584300E01FE0491E88
:10292000484329894000421800213046FFF7B6F895
:10293000761CF6B2042EDED3002001224349BDB23C
:10294000D307C4002C19E61884000F59BE600C5937
:102950002260401CC0B20428F3D30020FEBD617287
:102960000120FEBDF8B501203B4B800718603B48B5
:10297000FE2200787324411C114099800121D980E6
:1029800064015C8100221A810721197334490725EB
:10299000097859739D73D8731A76324D1D616C3561
:1029A0005D615C331C802C4C2F4B5C3463802A4B64
:1029B0002E4C5C339C80284D73239B015C35EB804F
:1029C0002B4673251A812D01BB265D81B601224F4E
:1029D0009E8103235C37BB730823FB733B46D9748A
:1029E000187518331C809971D8715A809D801A729D
:1029F00020331C8099711E4FD8711F611D4FDF60FD
:102A00005A809D801C4B1D4DD87199711D800833D3
:102A1000D8719971104B7325B433D8719971AD0188
:102A20009D800A33197258720F4D9D805C800C3363
:102A30001E80D87299729A80DA800F481A4614382C
:102A4000AE3A05490068FFF763F9F8BDFCCA00100B
:102A50000010C0230010402F701000004903000038
:102A6000480300005CCC001090150000F02300002B
:102A700080200000C4210000B0020000202B0000D4
:102A800010B501462B4809F084F8420A2A49012072
:102A9000486029480023403003620F23C36202616B
:102AA000FF224261826103224A600421016210BD5B
:102AB00070B5401F0C46214D030009F0CEFE0817EB
:102AC000191D1D1D0D05081D2868844217D00846D4
:102AD000FFF7D6FF2C6012E029225206506BC9B2D4
:102AE000FF231B0218400843506308E0012000E068
:102AF000002000F010F802E0002002F03BFA012074
:102B000070BD10B500F0A6F800F01CF80A490F20BF
:102B10004031C86210BD10B5002803D0084600F04F
:102B20004EF810BD0648C0780028FAD1084600F0DB
:102B300027F810BD40D2DF0340000052C002000061
:102B4000C83A00003D2002490004086370470000B5
:102B50004002005510B5594C0320216808F040FB95
:102B600020685749401C20601020886310BD002158
:102B7000022801D0032800D1524900208165704706
:102B800010B529214906CA680C239A43CA6002225B
:102B90004D4B012807D0022805D0032807D000207C
:102BA00002F0E8F910BD5A604848086210BD5A604A
:102BB00047480862C8688006800EC86010BDF8B536
:102BC00029256D06E9680C221143E9603E4C012677
:102BD00000280BD0032806D0052803D0002002F0DF
:102BE000C9F9F8BD022060602E62F8BD394FA96BAB
:102BF000B8690902090A0843A86378682060364862
:102C0000286236482862F720C001286234482862CA
:102C1000344800F075FB2C490020403108601F2229
:102C20004A608A60032161602E6220616061A06158
:102C300020626062A0622C4800F062FB7868172175
:102C400008432060274800F05BFB78683721084381
:102C50002060F8BD70B5254CA06B00218A001219C8
:102C60001268491C801A0E29F8D32168204A2925A8
:102C70006D06914217D1E16B1E4A914213D1002893
:102C800010D1A0680104E0680002014320690143FB
:102C90006068C0B206F019FA6069A1692863080289
:102CA0000830686370BD4020286313486863134987
:102CB000072006F00AFA70BD002080E780020000BD
:102CC000C0030055552B001040000052A57F0000A6
:102CD00005780000B0CF0010A0FF000080FB0000CE
:102CE000817A000088130000307500008007012001
:102CF0001004102013067419084000002020200042
:102D0000F0B526492448086225480168090A0902E5
:102D100001600368FF21090203228B4392039B1881
:102D2000036004680B029C43150264190460046884
:102D30002602360A8C05361906604668360A3602BF
:102D4000C036466046688E43B6184660466801271E
:102D50009E43BF05F619466046683602360A3619A4
:102D60004660C6688E43B118C160C168994349196D
:102D7000C160C1680902090A0919C1600169090A2B
:102D80000902C0310161074940170860054906483A
:102D900080390860F0BD00000000C08000ED00E058
:102DA00000E400E080E100E0E1F001000521042200
:102DB00084230907012807D0022803D004280AD059
:102DC000082809D10A6007E00A60002000BF401C03
:102DD000C0B2C828FAD30B600120704701228105D8
:102DE000D203801A8003000E8200B548890D8058F6
:102DF000002800D04018704710B5C2B2B04B000A8E
:102E00004400203B1B5B934202D80020088010BD89
:102E1000AB4C8000603C205880189A1A0A8010BD84
:102E2000F8B5A84E776A0020C043F062F80501D5D6
:102E3000A54822E0B806A54D800F20D0A14C403C0B
:102E40006068C007FCD0A2480078122803D1002196
:102E50000820FFF7ABFF6978384600F02CF8022015
:102E60002060012020600C2020629A48A0629A48CD
:102E7000206200206870FF2001303062F8BD7800C9
:102E8000FCD5964968688842F8D107F055F828784B
:102E900007F094FA07F055F8F8BD10B56C2000F073
:102EA00046F80020894C0146607007F0C1F8207098
:102EB00007F056FA10BD38B58248864D4038406A52
:102EC000FF218000800C01310C1A687829780002FB
:102ED00008437E49022C48600ED026DD0121C9023C
:102EE000411A20290CD2FEF7B9FDE1B2284600F0C4
:102EF0003FF8FDF7BCFF18E0214600F09EF814E013
:102F000001210903884210D26946FFF775FF0028A6
:102F10000BD069460988A41EA14201DD69460C80D8
:102F200069460A88A91C08F0CAFD012038BD30B5E1
:102F30008421052212071160012313610024146209
:102F40006049022540390D600B600D610B617F23E4
:102F50001B021843D0610C2008625E4888625E48FC
:102F600008625848611EC162C462E901016230BD55
:102F700070B54278037812021A43594C8378E28282
:102F8000238381263601931B0125403CB2424FD05A
:102F900007DC544BD21A29D00C2A07D00D2A4AD16B
:102FA00012E0052B24D0062B45D127E0C27881788A
:102FB00012028918027940791204000610180918C3
:102FC00043480C220C300EE0C37882781B02D218E2
:102FD000037944791B0424061B19D3188A1F002A7D
:102FE00029DD811D184608F06AFD24E0657722E09E
:102FF00000210420FFF7DAFEA5771CE0384A002103
:10300000E577803A43189C7853186033491CC9B25D
:103010001C702E29F6D340188178334880224170E5
:10302000817A11438172C06800212030017702E06B
:10303000274910200870012070BDF8B50926044604
:10304000B6010025801B762808D200210420FFF756
:10305000ADFEFEF7CBFC0019801B1BE00120000336
:10306000844204D2A0B26946FFF7C6FE12E01F49AF
:10307000261A8E4206D200210420FFF797FE1C4834
:10308000354609E00121C903611A814216D2A0B276
:10309000FFF7A4FE002811D043190A48042101605B
:1030A0000849022240390A6101220A610521090703
:1030B0008A6083600F490160491E0160F8BD00000D
:1030C00060CD0010C000005030000040C40200007D
:1030D000103A000046110000090000014202000001
:1030E000800E0000000800005C030000C81C000007
:1030F000005D00400900FFFF0120704710B5827B92
:10310000042A01D0022A21D0002315229206046845
:1031100094614468D4619360037B447B5B1E1B0411
:10312000641E2343D3600389847B1B042343136100
:103130004389807B1B04034353610120906210602C
:10314000002902D050680028FCDB10BD0123DCE719
:10315000012115208006816201627047F3B583B0BA
:103160000E46FEF743FC2924039800256406012837
:103170000BD0022809D0032807D0042869D00020EA
:1031800001F0F8FE012005B0F0BD374F31467869F7
:103190000090364808F0FDFCE96B0291296C019122
:1031A000216A490849002162216A314A114321629A
:1031B00030490D62FF22CA623D612F49E9632F4900
:1031C0002964A168FE221140A160216A02221143F4
:1031D0002162002100BF00BF00BF491C3229F9D382
:1031E000216A0122920211432162012767621E496E
:1031F0004861886107220A610398032816D0304687
:103200000099FDF75DF9206A000C00042062206A35
:103210003843206265620298E8630198286419487F
:1032200017490160134804210162ABE70098761C3E
:103230000BD0154B236230BF256251231B061D6046
:10324000486188610A61A760DDE70F4B093323629B
:10325000F2E70C497D2000010D60A0610320606150
:10326000012060618EE7000000E000E050C3000034
:1032700084FB0000800000520301000007010000F1
:10328000E120000000E100E0A67F0000FEE710B5AD
:10329000FDF722F910BD10B506F083FE1C4B1D4A48
:1032A00000211D4807F089F91A4A1C4B521C0021C5
:1032B0001B4807F082F906F097FE10BDF921532054
:1032C0000006416004210162FF2141620022826206
:1032D000C2620163704710B5FFF7F0FF05F0D8FE3A
:1032E000FFF70FFCFDF7F2F8FFF732FFFFF7D5FD10
:1032F000FFF706FDFDF7C8FCFFF7CDFF012010BD6D
:10330000002101E000BF491C8142FBD3704700004F
:1033100084180000099001008D0D0010C41E0000EB
:103320000910001003460A467047FEE730B5024612
:1033300000208C4C014653569B001B195B684D00C6
:10334000AB40491C1843C9B21029F4D330BDFFB5B6
:1033500081B00D4606461C4610210A9F039808F0CE
:1033600014FCB878B04254D8F978B14251D3301A2D
:10337000C3B20020E278A17803E09B1A0818DBB200
:10338000C0B29A42F9D9421E8A18267AD2B296421F
:1033900004D8701AC0B2421E8918CAB2002D0AD0D1
:1033A000012D0FD0202A34D320281FD22021081A23
:1033B000C1B200201DE010282BD2102A00D30F220A
:1033C000002124E0202824D2102A22D3102804D25D
:1033D0001021081AC1B2002002E01038C0B200214A
:1033E000202A01D30F2212E0103A03E000212038F6
:1033F000C0B2203AD2B20AE0E57866684D4375194A
:103400005E5D039D2E54401C491CC0B2C9B290425F
:10341000F2D905B0F0BD30B50446002085B02E2CA1
:1034200004D2102C16D26100012012E01378A342BE
:1034300012D85578A5420FD30022497A03E0521CD6
:103440008000D2B2401C9142F9D8E21A4A4351009E
:10345000091D884005B030BD0B46009201AA00212D
:103460002046FFF774FF01A8FFF760FFF2E730B5D1
:103470000446002085B02E2C05D2103C102CE9D239
:103480006100012013E01378A34215D85578A542B6
:1034900012D30022497A03E0521C8000D2B2401CB1
:1034A0009142F9D8E21A4A4351001C3901D48840AC
:1034B000D0E74942C840CDE70B46009201AA01215E
:1034C0002046FFF744FF01A8FFF730FFC2E730B501
:1034D0000446002085B02E2C05D2203C0E2CB9D2FB
:1034E0006100012013E01378A34215D85578A54256
:1034F00012D30022497A03E0521C8000D2B2401C51
:103500009142F9D8E21A4A4351003C3901D488402B
:10351000A0E74942C8409DE70B46009201AA02215C
:103520002046FFF714FF01A8FFF700FF92E770B5F0
:1035300005460C46007AA9784018401E08F033FB77
:10354000697A064608462D3008F023FB2E30A0701D
:10355000E97871434118491EE1702E212170401E07
:10356000607070BD70CD001010B501460120FFF7EE
:10357000C3FD10BD10B501460420FFF7EFFD10BDDF
:1035800010B501460120FFF7E9FD002010BD10B580
:1035900001460320FFF7E2FD002010BD704700B593
:1035A000FE480078801CFE490870FE480078C0077D
:1035B000C00FFC4909784018801CFB490870FFF7D0
:1035C000EDFF00BDFFB50A9CFF250135009828409E
:1035D00000283FD003980268099803680F2A0BDB84
:1035E000F248C0880A38904206DB0A2B04DBEF4819
:1035F00000891438984226DA2C206043EC4D40199B
:1036000020304078401CC5B22C206043E84E801921
:10361000203045702C256543AD190826AE5F2C255A
:103620006543E34FED190A27EF5FF019002801DB2E
:10363000054600E045421E2D0CDA0298002809D10B
:103640001020014306E000252C206043D84E80194D
:1036500020304570C8B204B0F0BDF0B589B0044662
:103660000D467F26F605A100D24A5058D249096876
:1036700009F032F9A100CF4A5050A1005058CF496B
:10368000096809F029F90746A100CA4A5058394685
:1036900008F070FE0646284608F066FF0690C84807
:1036A0000168069809F0C2F93146079009F05AF905
:1036B0000746C3480168384609F00EF9C04908605A
:1036C000A100BC4A505808F02BFE059104903046EA
:1036D00008F026FE0022BB4B0191009008F0D6FCBA
:1036E00003910290059B049A08F0E6FC079106906E
:1036F00008F0FCFAA100AF4A505009B0F0BDF0B597
:1037000089B004460D467F26F605A100AE4A505802
:10371000A949096809F0E0F8A100AB4A5050A1009E
:103720005058A649096809F0D7F80746A100A64AEB
:103730005058394608F01EFE0646284608F014FF89
:103740000690A2480168069809F070F93146079082
:1037500009F008F907469D480168384609F0BCF8A9
:103760009A490860A100984A505808F0D9FD05917F
:103770000490304608F0D4FD0022924B0191009055
:1037800008F084FC03910290059B049A08F094FCD5
:103790000791069008F0AAFAA1008B4A505009B090
:1037A000F0BDFEB504460D4616461F463068019032
:1037B0003868009000200899085E08F0D5FE83491B
:1037C000086000200999085E08F0CEFE7C49086078
:1037D0007F480078002813D0FF20013028400028BF
:1037E00006D07C48744908607B48744908601AE038
:1037F0007A4871490860012080077049086012E02A
:10380000FF2001302840002807D0FD2080056A49AC
:10381000086073486949086005E06E4866490860B9
:103820006D48664908606F48005D002815D1012089
:103830006C4908557F20C005A100634A5050A10083
:103840005C4A5050019808F08FFE6049086000986B
:1038500008F08AFE5A49086009E0019801B220B2D6
:10386000FFF74DFF009801B220B2FFF7F6FE574870
:10387000006808F02FFE30605148006808F02AFE0A
:1038800038600020FEBDFFB58FB0044616461F46C7
:10389000189D00BF00BF00BF00BF53480078400024
:1038A0005249085A0E90504800784000085A0D902E
:1038B0004D48007841004D48001D405A0C904A4840
:1038C000007841004948001D405A0B904848007953
:1038D00002280DD14448007840004449085A40006D
:1038E0000E90414800784000085A40000D9018E0C2
:1038F0003D48007840003D49085A0E903A4800780B
:103900004000085A0D903848007841003748001DA3
:10391000405A0C903448007841003448001D405A09
:103920000B902C206043224941181820085E316812
:10393000401A08D42C2060431D4941181820085E05
:103940003168401A07E02C206043194A8018182279
:10395000825E3168881A09902C206043144941180E
:103960001A20085E3968401A08D42C206043104998
:1039700041181A20085E3968401A07E02C2060437D
:103980000B4A80181A22825E3968881A08900999B1
:10399000089808180790099908982BE04803000038
:1039A000530200004903000054020000103A0000D6
:1039B000240B0000F01E0000D4020000D80200001A
:1039C000D00200000000F03FC81E0000CC02000042
:1039D0003A0200009A99593F0000C0403333733FC8
:1039E00000002041181F00000D0200000C3B0000E9
:1039F000000B0000081806900999089808180A900A
:103A00001098C007C00F00287ED00A9A0E99881817
:103A100008F0AAFD05900A9808F0A6FD019030680C
:103A200008F0A2FD0090019908F09CFF03900E9809
:103A300008F09AFD01902C206043FD4A8018416AED
:103A4000019808F08FFF0290039908F045FF049059
:103A5000059908F08FFC2C216143F54A89184862CA
:103A60000A9A0D99881808F07FFD05900A9808F0C9
:103A70007BFD0190386808F077FD0090019908F00F
:103A800071FF03900D9808F06FFD01902C206043AA
:103A9000E74A8018816A019808F064FF0290039950
:103AA00008F01AFF0490059908F064FC2C2161438A
:103AB000DF4A891888622C20604382180620105E35
:103AC0000022AA5E801A09D42C206043D84A8218AA
:103AD0000620105E0022AA5E801A08E00022AA5E7C
:103AE0002C206043D24BC0180623C35ED01A014677
:103AF00064312C206043CE4A82180620105E0022DA
:103B0000AA5E801A0BD400E024E02C206043C84A4F
:103B100082180620105E0022AA5E801A08E00022A9
:103B2000AA5E2C206043C24BC0180623C35ED01A85
:103B30000022AA5E50432C226243BD4BD3180622BA
:103B40009A5E64235A438018059008F02CF800B25E
:103B50002880A1E0079A0C99881808F005FD0590C7
:103B6000079808F001FD0190306808F0FDFC009016
:103B7000019908F0F7FE03900C9808F0F5FC01900D
:103B80002C206043AA4A8018416A019808F0EAFE96
:103B90000290039908F0A0FE0490059908F0EAFB52
:103BA0002C216143A24A89184862069A0B99881809
:103BB00008F0DAFC0590069808F0D6FC0190386809
:103BC00008F0D2FC0090019908F0CCFE03900B980D
:103BD00008F0CAFC01902C206043954A8018816A45
:103BE000019808F0BFFE0290039908F075FE04905A
:103BF000059908F0BFFB2C2161438D4A8918886222
:103C00002C20604382180620105E0022AA5E801AD3
:103C100009D42C206043864A82180620105E0022B8
:103C2000AA5E801A08E00022AA5E2C206043804B26
:103C3000C0180623C35ED01A014664312C206043AD
:103C40007B4A82180620105E0022AA5E801A09D4E0
:103C50002C206043764A82180620105E0022AA5E5D
:103C6000801A08E00022AA5E2C206043704BC01826
:103C70000623C35ED01A0022AA5E50432C22624360
:103C80006B4BD31806229A5E64235A438018059022
:103C900007F089FF00B228802C216143644A89180B
:103CA000486A08F017FC30602C216143604A89188B
:103CB000886A08F00FFC3860002013B0F0BDF3B53F
:103CC00089B05C480078002802D000200BB0F0BD1D
:103CD0005948C07D08905848007E0790574A12788E
:103CE0009300D118564A128D06235A43104607F006
:103CF0005AFF0746534A12789300D118504A528D02
:103D000006235A43104607F04EFF064609980088DE
:103D100004B20A98008805B200200690059005209C
:103D20000490404203900520029040420190089880
:103D3000002830DDBC4208DAE01B089948438011B6
:103D4000C1190498081804B23EE03D48008D001BDC
:103D5000B8420DDA3A48028D008D001BC01B08994D
:103D600048438011C019111A0398081804B22BE0B7
:103D7000314B19229A56324B1B8D5B101B1B5A4339
:103D800010462F4A128D511007F00DFF01190698A9
:103D9000081804B218E0BC4216DB2948008DC01B8D
:103DA000A04211DB244B19229A56254B1B8D5B1028
:103DB0001B1B5A431046224A128D511007F0F3FE86
:103DC00001190698081804B2079800283CDDB5428E
:103DD00008DAA81B0799484380118119029808182E
:103DE00005B24AE01648408D401BB0420DDA144837
:103DF000428D408D401B801B0799484380118019DC
:103E0000111A0198081805B237E00B4B1A229A567E
:103E10000B4B5B8D5B105B1B5A431046084A528D5F
:103E2000511007F0C0FE41190598081805B224E0AA
:103E3000240B000069020000D43A0000480300008F
:103E4000E003000049030000B54216DBFE48408D48
:103E5000801BA84211DBFD4B1A229A56FA4B5B8D50
:103E60005B105B1B5A431046F74A528D511007F006
:103E70009AFE41190598081805B2099804600A9835
:103E80000560002022E7FFB58FB00D4614461E46A0
:103E9000199F0F9808F068FB0E90284608F064FB05
:103EA0000D90204608F060FB0C90304608F05CFB5B
:103EB0000B90189808F058FB0A90384608F054FB0D
:103EC0000990BD4217DD1899081B08F04DFB0590BD
:103ED000B81B08F049FB04900599049808F04AFAC9
:103EE00008900E99089808F03DFD02900D9908F091
:103EF000F3FC069016E00F99601A08F035FB059068
:103F0000701B08F031FB04900599049808F032FA10
:103F100008900A99089808F025FD0290099908F080
:103F2000DBFC06900C99089808F01CFD02900B9998
:103F300008F070FD0790089808F0F2F90022134687
:103F40000191009008F096FC01D1039411E001204A
:103F50008007089908F006FD01900799069808F077
:103F600065FD0090019908F005FA029008F0B2FA98
:103F70000390039813B0F0BDF0B593B004460D461E
:103F800016461F46781B08F0EFFA1290189949431D
:103F900022466243881A08F0E7FA11901999481BE3
:103FA00008F0E2FA10902146614332467243881AC3
:103FB00008F0DAFA0F900F99109808F0D3FC0790E8
:103FC0001199129808F0CEFC0690079908F084FC2D
:103FD0000E901999681A08F0C7FA0D90301B08F076
:103FE000C3FA0C90781B08F0BFFA0B901899081BC5
:103FF00008F0BAFA0A900A990B9808F0B3FC0290FC
:104000000C990D9808F0AEFC0190029908F064FC40
:10401000039008F085F9002201239B070591049085
:1040200008F04AF80791069007F060FE0990099899
:1040300008F076F9002213460791069008F01AFC62
:1040400008D009990E9808F095F9079008F042FAFF
:10405000089000E00896089813B0F0BDF0B505ACE4
:1040600070CC002806D1275E002F01DA00272780B8
:1040700000271F80764F3F787F1E874207D1002799
:10408000DF5F002F01DA00271F800027278000292B
:1040900006D1775E002F01DA0027378000272F80B6
:1040A0006C4F3F787F1C8F4207D10027EF5F002FB6
:1040B00001DA00272F8000273780F0BDF0B50346D6
:1040C0000C461546002200210BE063480069634E50
:1040D0007656F6187600805F665C70438218481C3E
:1040E00041B20429F1DB5C4800695E00805F2679FB
:1040F0007043821805210CE057480669481E574F47
:104100003856C0184000305E665C70438218481C08
:1041100041B20929F0DB10462841024610B2F0BD39
:10412000FFB593B0064600200690059004904C48D9
:104130000178304607F037FD84B249480078604383
:10414000301A85B2149800282CD043480069079093
:10415000424903200856801980B212900420085664
:10416000801980B21190701E80B21090701C80B2C5
:104170000F9071000798405E0E90109841000798CC
:10418000415A0D91119841000798415A0C9112988B
:1041900041000798415A0B910F9841000798415AE6
:1041A0000A9136E01698427A01463046FFF786FFBC
:1041B0000E9016994A7A711E88B21699FFF77EFF03
:1041C0000D9016994A7A711C88B21699FFF776FFFE
:1041D0000A9016994A7A22490978711A88B2169972
:1041E000FFF76CFF0B9016994A7A1D4909787118F0
:1041F00088B21699FFF762FF0C900AA80DA90CAAC5
:104200000BAB00920191029069B260B20E9AFFF777
:1042100025FF1598C007C00F00287DD068462C21C7
:10422000415E09910E98089068463027C75F09994A
:104230000898814205DD099808900898B84200DA8C
:104240000897089909980DE0E0030000D43A0000AF
:104250004803000049030000000B000003020000B7
:1042600054020000884214D10898B84211D1601C51
:104270008000FE4909581C980160002C04D0FC48BD
:104280000078C01EA04202D1012017B0F0BD00206E
:10429000FBE7F848807A002811D0A01C8000F34981
:1042A000085801970090601C80000A58A000085828
:1042B0000390089B0999FFF75FFE069010E0A01C91
:1042C0008000EA49085801970090601C80000A5855
:1042D000A00008580390089B0999FFF7D4FD0690A9
:1042E0000698002801DA00200690E3480078800054
:1042F000DE490958E0480078401C8000DB4A10582D
:1043000008184110069881420FDCDB4800788000D5
:10431000DA490958D84800E015E00078401C8000D0
:10432000D64A10580818401006901C990698086044
:10433000002C04D0CE480078C01EA04203D10498BF
:10434000401C00B2049002211598084002287DD13B
:1043500068463421415E09910E98089068462827E6
:10436000C75F09990898814205DD09980890089867
:10437000B84200DA089708990998884218D1089835
:10438000B84215D1681C8000BC4909581D980160CD
:10439000002D09D0BA480078C01EBA490978C9076B
:1043A000C90F401AA84201D102206EE700206CE735
:1043B000B048807A002811D0A81C8000AF49085866
:1043C00001970090681C80000A58A80008580390C4
:1043D000089B0999FFF7D0FD059010E0A81C80000C
:1043E000A649085801970090681C80000A58A80048
:1043F00008580390089B0999FFF745FD059005981B
:10440000002801DA002005909E48007880009B4932
:1044100009589C480078401C8000984A1058081899
:104420004110059881420CDC9648007880001146C6
:10443000095894480078401C800010580818401013
:1044400005901D9905980860002D00E00EE009D048
:104450008B480078C01E8B490978C907C90F401ADC
:10446000A84203D10498801C00B2049004980CE781
:10447000F7B584B00D46164600BF2C21049848437A
:10448000814940181D27C7572C21049848437E496D
:10449000085A0390FF2101310398084000283FD0BB
:1044A00030217943794A891801960095C98888B2E4
:1044B000774B01220021FFF733FE0446002C01DB7D
:1044C000012C0CD130217943704A8918019600954E
:1044D000C98888B26E4B01221146FFF721FE3021B8
:1044E00079436A4A891801960095C98888B2694B50
:1044F00002220021FFF714FE0446002C01DB022CEF
:1045000032D130217943614A891801960095C988D2
:1045100088B2604B02220121FFF702FE044623E02D
:1045200030217943594A891801960095C98888B283
:10453000594B03220021FFF7F3FD0446002C05DB55
:10454000012C03D0022C01D0032C0DD13021794352
:104550004E4A891801960095C98888B24E4B0322AD
:104560000121FFF7DDFD0446204607B0F0BDF0B5A0
:10457000AFB000202A9001202590FDF737FA059072
:104580000598801C049005986630039000210598DA
:104590000170059841706846017641760024D4E3A5
:1045A0002C20604338490D5AFF2002302840002853
:1045B0007AD040202840002803D0482028404828AE
:1045C00072D16846007E2B49897888420ADB2C200C
:1045D00060432D49085A402108432C2161432A4A4F
:1045E0005052B0E32D48284000280BD02C206043C7
:1045F00025494018C07F06210840002802D000202D
:104600002749085527482840002819D02C20604306
:104610001D4940181821415E28912C2060431A49F9
:1046200040181A21415E27912C20604316494018FA
:10463000C08826902C2060434018807F2590A2E1FE
:1046400001208002284000286CD02C2060430E49B5
:1046500041181D200856302148430C4941180620B6
:10466000085E29900648017829981EE080CD001048
:1046700053020000103A00004803000040CE001032
:104680005402000049030000240B000098040000BD
:104690009CCF0010A6CF001088CF00104808000063
:1046A000181F00000C0A00004CE307F07CFAC0B2AF
:1046B0002C90FE4909782C9841432998401AC0B2A1
:1046C0002B902C206043FA4940184169F948FA4A76
:1046D0001278805C81420BD22C206043F449401850
:1046E0004069401C2C216143F14A891848612AE342
:1046F0002C206043EE49085A0121890288432C216D
:104700006143EB4A50522C2060431146085A202145
:1047100008432C21614350522C20604311460D5A0E
:10472000012025902C206043E14940181D26865722
:1047300030207043E1494018807A2A90FF200130F0
:104740002840002813D1302070434018808904216C
:10475000084000280BD130207043D84940180A2166
:10476000415ED748D44A1278805C81425DDC27AA3A
:1047700028A92046FFF77CFE2D9030217143CF4AB7
:1047800089180620085EC949097807F00CFAC0B2FA
:104790002C9030207043C94940188179C34A12785F
:1047A0002C985043081AC0B22B902D9800282ADA72
:1047B00030207043C14940188089042108400028F6
:1047C00012D02C98401C8000BE490858BE49497D33
:1047D000084128902B98401C8000BC490858BA49D1
:1047E000897D0841279018E030207043B349401874
:1047F0002821415E289130207043B04940182A2179
:10480000415E279109E0B048417D289808412890F1
:10481000AD48817D279808412790FF20013028402E
:10482000002810D0022025900DE030207043A349CD
:1048300040182821415E2891302070439F4940183C
:104840002A21415E279127A928A8FFF738FA3020AE
:1048500070439A4940184069974909784900954A38
:10486000103A515E401A0011934909784900515A93
:104870004900401801B2269120A81821415EFF2965
:1048800001DDFF2002E020A91820085E26902C20E0
:10489000604387494018406901283BD02C20604381
:1048A000401881892C206043814A801801822C2085
:1048B00060431146401801892C2060438018818193
:1048C0002C20604311464018C1892C206043801879
:1048D00041822C2060431146401841892C206043BE
:1048E0008018C1812C2060431146401840882899C7
:1048F000081A01B22C206043801801812C206043EB
:104900001146401880882799081A01B22C2060436C
:1049100080184181289801B22C206043644A801895
:104920004180279801B22C2060438018818020208C
:104930002840002827D0289807F016FE2C21614334
:104940005B4A89184862279807F00EFE2C216143C4
:10495000574A89188862289801B22C206043801831
:104960000183279801B22C2060438018418320A83E
:104970001821415E2C2060438018C1802C216143A6
:104980008918259888772C206043494941181820B8
:10499000085E2899401A40432C216143444A8A18F2
:1049A0001A21515E279A891A494340182E9025985A
:1049B000012825D13F4812303F490978405C4043E7
:1049C0002E9988421CDB2C20604339494018C07F57
:1049D000022805D02C2060434018C07F06280FD144
:1049E0002C206043324940181821415E28912C2028
:1049F00060432F4940181A21415E279100202E90D4
:104A0000002708202840002808D010200743002154
:104A10002C206043264A80182030417020202840F6
:104A2000002802D0042007437CE02C216143204A67
:104A3000891808228A5E2C2161431D4BC9180A235C
:104A4000CB5ED1180291002901DB029901E00299A5
:104A50004942FF225F32914215DB2C216143144A07
:104A600089180C228A5E2C216143114BC9180E2330
:104A7000CB5ED018002801DB014600E04142FF2256
:104A80005F32914238DA26A827AB28AA294600903F
:104A90002046FEF7F8FE2C206043054940181A30E6
:104AA0002C216143024A8918183111E05402000098
:104AB000240B0000943A00000D020000980400004E
:104AC000723A000080CD00100004000040CE0010BB
:104AD00027AB28AA0091019029462046FEF761FEE7
:104AE0000320FE4908750321FD480176FB48417506
:104AF000FB48183041700AE01420F8490875142169
:104B0000F7480176F5484175F54818304170F54889
:104B100000784100F448405A40432E99884201DC15
:104B2000082007432898002801DA00202890EF4841
:104B3000008D2899884203DCEC48008D401E2890A7
:104B40002798002801DA00202790E848408D27990F
:104B5000884203DCE548408D401E279027A828ABFB
:104B600001940090E248027839462846FEF72AFD73
:104B70000746E0488078002856D0289882B26846D8
:104B8000007E0C21484306A902310A52279882B2BE
:104B90006846007E0C21484306A902314018428035
:104BA00020A8008B82B26846007E0C21484306A9EB
:104BB00002314018828020A8008B002801D10022F9
:104BC00000E02A9A6846017E0C20414306A8023084
:104BD0000818C28002203843C2B26846007E0C2109
:104BE000484306A9023140180272FF2001302840D4
:104BF000002801D0022200E001226846017E0C203C
:104C0000414306A80230081842726846007E0C2113
:104C1000484306A90231401884726846007E401C51
:104C2000C1B2684601766DE004203840002803D008
:104C3000B048C07900280FD010203840002803D099
:104C4000AC48407A002807D008203840002859D0C6
:104C5000A848007A002855D1289882B26846017E7B
:104C60000C20414306A802304252279882B268467F
:104C7000007E0C21484306A902314018428020A83A
:104C8000008B82B26846007E0C21484306A902319F
:104C90004018828020A8008B002801D1002200E06B
:104CA0002A9A6846007E0C21484306A90231401822
:104CB000C28002203843C2B26846007E0C214843BD
:104CC00006A9023140180272FF2001302840002856
:104CD00001D0022200E001226846007E0C214843F8
:104CE00006A90231401842726846007E0C214843F2
:104CF00006A90231401884726846007E401CC1B289
:104D000068460176289801B22C2060437A4A8018C0
:104D10000183279801B22C2060438018418320A88A
:104D20001821415E2C2060438018C1802C216143F2
:104D300089182598887702203843C1B22C20604317
:104D40008018C17700BF601CC4B20F2C00DA27E4C2
:104D50006A480079002816D0002410E06348018DCD
:104D6000491E0C20604306AA0232105A081A82B269
:104D70000C20604306A902310A52601CC4B2684686
:104D8000007EA042EADC5D484079002818D000246B
:104D900012E05648418D491E0C20604306AA02329B
:104DA00080184088081A82B20C20604306A902319C
:104DB00040184280601CC4B26846007EA042E8DC15
:104DC0004E48C07800281BD0002415E00C2060431A
:104DD00006A90231085A2E900C20604340184288E0
:104DE0000C2060430A520C21614306AA0232891842
:104DF0002E984880601CC4B26846007EA042E5DC64
:104E0000002443E00C20604306A90231085A01B295
:104E1000049801800C20604306A9023140184088A4
:104E200001B2049841800C20604306A90231401869
:104E30008188049881800C20604306A902314018C3
:104E40008179049881710C20604306A902314018D1
:104E5000017A0498C1710C20604306A90231401800
:104E6000417A049801720C20604306A9023140186F
:104E7000817A0498417205980078401CC1B2059867
:104E8000017004980A300490601CC4B26846007E29
:104E9000A042B7DC00210598415E08462FB0F0BD66
:104EA000FFB509AC70CC00280ED1215E002901DAD3
:104EB0000021218051002788C91B09B219800021D7
:104EC000595E914200DD1A800D490978491E8142E0
:104ED00024D10021595E002916DA13E0843A00003B
:104EE000683A00000D020000143B0000E0030000DF
:104EF0005C020000C83A0000240B0000103A0000D9
:104F0000480300000021198051001F88C91B09B205
:104F100021800021615E914200DD228001990029FB
:104F20000ED1715E002901DA0021318051003788ED
:104F3000C91B09B229800021695E914200DD2A80E7
:104F40000B490978491E019FB9420FD10021695EC2
:104F5000002901DA0021298051002F88C91B09B2DC
:104F600031800021715E914200DD3280FFBD000082
:104F700049030000002812D129204006416902227D
:104F8000114341618169FF22114381614169FD2221
:104F9000114041614169012211434161FEE77047BF
:104FA000F0B5002315E0828804685A43A618002251
:104FB0000AE054009500345F4F59002C00DA644237
:104FC0003C19521C4C51D2B2C4799442F1D85B1CAA
:104FD000DBB282799A42E6D8F0BDFEB506467A4841
:104FE0006946007800258872284629468200401CC0
:104FF000C0B2B1505028F9D300247448214600783B
:10500000FCF7E6FD0746C007C00FC019C0B200900C
:105010006846C772732189012046FCF7D9FE0190CA
:105020000098410068460181A800811901A8FFF796
:10503000B7FFE819641CE4B2C5B2042CDDD3FEBD91
:10504000FEB562480078C107C90F0818C0B26049B0
:1050500042005418A41DA10702D0E41CA408A40017
:1050600059490D780290801CC6B25A485A490078B6
:10507000754342005118498A0191002802D15748CE
:10508000FFF7ABFF002053E0524F41000A193F7871
:105090000021BC467F000B46BE4605E05F00D75F9F
:1050A000002F00DD79189B19AB42F7DB6346002B1C
:1050B00010D0019B994239DB474F7346DB19DB88DF
:1050C0004B4339466144897B67460B419E46390014
:1050D0000CD019E0414F8300FB580093019B99428B
:1050E000EADA019F009BBB4220DBE5E73A49009FDB
:1050F000CB88897B7B430B4159000091009B714613
:105100009E4500DA19468E4600210DE04B009C4674
:10511000D35E002B07DD7746734501DBDB1B00E028
:1051200000236746D3538919A942EFDB401CC0B264
:1051300002998842A8D3FEBD82E77047F0B52348A4
:105140000278D007C00F8018C1B221484B00181850
:10515000801D830702D0C01C80088000891CC9B252
:105160008E46194B1E491B7809889C46372904D363
:105170001C490A23CB5E642B25DC002121E0734609
:105180004B435B001E180024254623460AE05F00BF
:10519000F75F142F01DD641C64B2012C00DD0125D2
:1051A0005B1CDBB29342F2D300231C4605E0002DCA
:1051B00001D05F00F4535B1CDBB29342F7D3491C70
:1051C000C9B26145DBD3F0BD4803000049030000CC
:1051D000903B00400D0200002C3A0000281F000008
:1051E000CC030000F00D0000FE48FD490160FE49BF
:1051F000C160FE490161FE494161FE49C161FE494C
:105200008161FE49CA88028509894185FC48F549C2
:10521000007820314874FB480422007888744A756D
:105220008A75FA49F84A0A60C30701D0C01C00E039
:10523000801C88804000001D101808607047F34AE9
:10524000E84806CA82604160F149F24B09784A0099
:10525000D21892888285F04A1288C285EF48411898
:10526000E0488A792030C27409790175EC49097DDA
:1052700001747047F0B5EB4B00241D785E7827E091
:105280002F19BF00FF187F798F421FD12C1964B2EC
:10529000A500ED180626AE5F964200DAEA80002CE3
:1052A00013DA9C781E2C10D2A400E418E2809A78BD
:1052B0009200D218107198788000C0184171587807
:1052C000401C58709878401C9870F0BD641CE4B283
:1052D000A642D5D8E5E770B530256943C4683039B2
:1052E0006118048908255443E418CC800024E44361
:1052F0000C8101248C818A700A700A71CB704B700A
:105300004B71455F5E0055436D004068AD19405FCD
:10531000C54D920052194861526805465543EA1737
:105320008D61CA619A00C14BD21852685043C217AE
:105330004A6208624C8170BD0022BA49012803D03C
:10534000887808704A7070470A70FBE7F0B5044629
:10535000A9B000200C90207A1D9020462030817C3E
:1053600000258A1CD6B222685118C91C2691616991
:10537000219121691191AB498D70417C2591807CEF
:1053800024900F2189012068FBF7FAF800208100A2
:105390002269401C55506269C0B255501528F6D399
:1053A00000203021414300220C31E368401CC0B290
:1053B0005A521928F5D30020C2E11D99626848436A
:1053C00040001018289011992198119000202191E7
:1053D000024683001199401CC0B2CA501528F8D368
:1053E000019926987143401E0818209000209FE1E3
:1053F00020982E22401C20900298A25E41002898FE
:1054000009180020085E82427EDC029B219AD31894
:105410005A78002A78D11D9A3E2752000E928A1A95
:105420001546403DEF5F8742EEDC0025555F854223
:10543000EADC0225555F8542E6DC0A46403A3E2515
:10544000555F8542E0DC02228A5E8242DCDC012577
:105450009D700E9A3E2752181346403BDF5F8742ED
:10546000D2DC029F119BDD550E9BC95E8142CBDCD5
:10547000029B1199C9184D700223D35E8342C3DC8D
:105480008D700C9819287CD2401C2790C0B20090D7
:105490000C98E1683022504308180C9001200F90BE
:1054A000A16901980870E169029808702099009834
:1054B000087000250098FFF73FFF6F460ECF20468B
:1054C000FFF709FF03E0802801DB054621E1A06921
:1054D0003346415D1C91E069269A415D1F911C99FC
:1054E0001D9848431F9940004900401861684018C2
:1054F0001C994B431F99511800225918825E6D1C4C
:105500000D922DB20E9A00E00FE1821A944613928A
:105510000E9A8B1B1718821E801C1690481E14971B
:1055200005901592604603938A19801E1790B81E45
:10553000049218906046801C1990581E491C0790D0
:10554000BF1C501E5B1C521C0890069100201A972D
:1055500009930A9207462290B800844603A9085886
:105560000178002910D0009881420DD0624613A81E
:1055700080580022825E0D98824200DD024600982B
:1055800000E0CEE0FFF776FE604613A90858002140
:10559000415E0D98814208DD614603A840580178BC
:1055A0000098814201D0012022907F1C7FB2082FF9
:1055B000D2DB229800287DD1810003AA52581378AB
:1055C000002B78D113AB5B5800219C46595E2E23EB
:1055D000E35E99426FDB0D9B99426CDC009927E0FA
:1055E00090280040E00300009804000048090000F3
:1055F0009C090000F0090000780A0000103A000041
:105600004803000049030000903B004040020000B6
:105610000D020000843A000014020000AC3A0000C1
:10562000D43A00001804000080CD001040CE0010D5
:105630001170FE490A5C1C99511849B21B91A3696B
:105640000F9A9954FA490A5C1F9951184BB2E269B2
:105650000F999E4653540F996346491C09B20F9106
:105660000C99002249699A5E8A180C994A611B9923
:10567000F04A8900891800229A5E49680C9F5143BC
:10568000BB69CA17FF69C9180C9B7A41DA61996135
:1056900073469900E84A0023891862464968D35E38
:1056A0000C9F59433B6ACA177F6AC9180C9B7A4101
:1056B0005A6201E02DE027E019620C990C9A4989A1
:1056C000491C51810C9902228A561B998A4202DA9E
:1056D0000A460C998A700C9900228A561B998A42B4
:1056E00001DD0C9A11700C9903228A56714672459D
:1056F00002DA0A460C99CA700C9901228A56714640
:10570000724501DD0C9A5170401C40B2082800DA45
:1057100052E70F98854200D0D5E62798C0B20C908A
:1057200003E025980190249802900298401CC0B292
:1057300024990290884200D25AE60198401CC0B2D7
:1057400025990190884200D237E60C9829B0F0BD27
:1057500030B53024D3686043C0180624045F526813
:105760006300D55E4B00D35EAB4202DB0481C18097
:1057700030BD0824045F002C03DB6400125F9342F9
:10578000F6DD018130BDF7B584460C460298302520
:10579000C368614630206C434143A646CA18E418EA
:1057A00050696569401950619069A669D569E769D2
:1057B00086197D419661D561106A266A556A676AC5
:1057C00086197D4116625562D089E5894019D081DC
:1057D000108A258A401910825089658940195081A4
:1057E0009089A589284390810020A081022002256C
:1057F00010566557A84200DA9570032503205557C7
:105800002056854200DAD07070465D5618568542A3
:1058100000DD58540121012051562056814200DDFF
:10582000507006216046615EC0B2029AFFF790FF99
:105830000821615E002904DB6046C0B2029AFFF7CE
:1058400087FFFEBDF7B586B006980C46069A002184
:10585000C56820327948059209E08A001218137948
:105860005B1E137153795B1E491C5371C9B2827858
:105870008A42F2D8B8E000208446107930214843AB
:10588000401943895079484340194089181881B21A
:10589000042010568646052010560090012031E065
:1058A000664A83009A1813793026029373435B1972
:1058B0005E895379302701937B435B195B89F31829
:1058C0009BB28B4208D219460423D35684469E4687
:1058D0000523D356009313E08B4211D1029E574B00
:1058E00076450DD1019F009EB74209D10626965FED
:1058F00062469200D2180623D35E9E4200DAD6801A
:10590000401CC0B24D4A93788342C9D8604681009A
:1059100010460F1804260520BE57385600908642C0
:1059200057D0069806214268302070434019415EE6
:105930008446480000993023594349190623CB5E19
:10594000105E5B00D25E904200DD1046059AD27C6C
:1059500042430598007D02410620385E824212DDF6
:10596000604642690698808D82420CDD4A69824217
:1059700009DD0A228A5E60460A21415E05985118B7
:10598000007C814225DB3146069A0098FFF7FBFE3A
:105990002A49641E8878E4B2800040180288BA80E0
:1059A0004088F8808878401E8870009A0020D3B222
:1059B0000BE0820052181779B74200D11371577962
:1059C000B74200D15371401CC0B28A7882420BD9D1
:1059D000EFE71A488178890009180A88BA8049884F
:1059E000F9808178491E8170144A9078002800D08F
:1059F00041E72746002613E0302078434019009005
:105A0000007BC00708D109E0302070434019007BBB
:105A1000C00717D0761C76B2192EF5DB7F1CFFB2BB
:105A2000192FE9D300200899074609E02202000057
:105A30002A02000080CD001040CE001018040000A3
:105A4000086050E030207043401930220099FAF786
:105A5000F9FD00200099761C888176B2DEE73020BF
:105A600078434619307BC0073BD0706900900290A4
:105A7000C0170190F169B069019B009A05F0E7FF3A
:105A8000059A527D05F0B8FF00B23085049003906E
:105A9000716A306A019B009A05F0D9FF059A927DE0
:105AA00005F0AAFF01B271850398002801DA0020F1
:105AB00005E00698049A008D824201DB401E308585
:105AC000002901DA002004E00698408D814201DBC4
:105AD000401E7085089801680298814201DA089991
:105AE00008607F1CFFB2A742B9D3204609B0F0BDC1
:105AF000FFB5FFB01446BEB08C468646002230206B
:105B00001546454370462B18187BC00720D05E8988
:105B1000570083A9CE5397006AA95E69CE51D6007B
:105B200006AF9869BF19D96903C738A9186A8919D6
:105B30005F6A81C19978A0A88154D978AEA88154B0
:105B40007046405DA7A988545978B5A8815403E0F0
:105B50000020530083A9C852521CD2B2192ACED3B6
:105B6000614600208A780BE083006344597990AD48
:105B7000491E2954197998AB491E1954401CC0B2CA
:105B80008242F1D800207BE0830061465918062349
:105B9000CB5EC0998B4271DB90AE98AB315C1D5CE3
:105BA000A9426BD08E464B00009583A96D00CE5A5A
:105BB0004F5BF619CE5200234B5371468E00009D69
:105BC0006AA9AD008B594D595B198B517146C900BB
:105BD00006AB009D5B181F68ED005B6806AE76198A
:105BE000019560CE7D19734106AE761835607360FD
:105BF000019D38AB38AF5B187F191E68A0CF5B687A
:105C000075197B4138AE71180D604B60A0AB009DDB
:105C10007146595C5D5DA94201D271465D54AEABDF
:105C200071465D5C0099595C8D4201D275465955AB
:105C3000A7A97346CD5C009BCB5C9D4201D97546FC
:105C40004B55B5AB71465D5C0099595C8D4201D9ED
:105C500075465955411CC9B290AB98AF0CE05E5CDB
:105C60003D5CAE4201D11E5C5E547E5CAE4201D111
:105C70001D5C7D54491CC9B28A42F0D8401CC0B298
:105C8000824281D8002525803B48608028466326D3
:105C900083AB6AAA4100595A00290BD02788B94220
:105CA00001D9218006466788B94203D2618081000C
:105CB0005158A160401CC0B21928EBD3632E51D0BB
:105CC000B0001758AEA86760805DA073A0A8805D83
