:10000000F03F00001500001000000000000000009C
:10001000002070477CB51B48292149060862012051
:1000200008600020486138200863092088600F209C
:100030000861002008613F20C861FE20C8600420DC
:10004000486000BF00BF00BF00BFFFF7E1FF0646EA
:100050000D4840680090002001900B4D002405E001
:10006000A0002858A100019A5050641C282CF7D3F6
:100070000021009848600098804700BF00BF00BF83
:1000800000BF7CBDA07F0000000400100000000045
:100090000000000000000000000000000000000060
:1000A0000000000000000000000000000000000050
:1000B0000000000000000000000000000000000040
:1000C0000000000000000000000000000000000030
:1002C000000300000000000000000000000000002B
:1002D0000003000000B900000003000000B90000A6
:1002E00000C000000004000001000100150115011C
:1002F0000101424C414445336100000001001500FA
:1003000000000000000000000000000000000000ED
:1003100000000000000000000000000000000000DD
:1003200000000000000000000000000000000000CD
:1003300000000000000000000000000000000000BD
:1003400000000000000000000000000000000000AD
:10035000000000000000000000000000000000009D
:10036000000000000000000000000000000000008D
:10037000000000000000000000000000000000007D
:10038000000000000000000000000000000000006D
:10039000000000000000000000000000000000005D
:1003A000000000000000000000000000000000004D
:1003B000000000000000000000000000000000003D
:1003C000000000000000000000000000000000002D
:1003D000000000000000000000000000000000001D
:1003E000000000000000000000000000000000000D
:1003F00000000000000000000000000000000000FD
:10040000F03F000063310010000000000000000019
:1004100000000000000000000000000000000000DC
:1004200000000000000000000000000000000000CC
:100430000000000000000000F105001007A90010F6
:100440003F2E001061310010613100106131001049
:1004500061310010F38E0010F18E0010911B00101E
:100460006131001061310010613100106131001004
:10047000613100100F0E0010B31B0010D51B0010CF
:10048000F71B001061310010613100106131001064
:1004900061310010613100106131001061310010D4
:1004A00061310010613100106131001061310010C4
:1004B00061310010613100106131001061310010B4
:1004C00003B40148019001BDC100000003B401481C
:1004D000019001BD013D000000F002F800F040F87D
:1004E0000CA030C8083824182D18A246671EAB4649
:1004F00054465D46AC4201D100F032F87E460F3ED4
:100500000FCCB6460126334200D0FB1AA246AB46BA
:100510003343184730D7000090D70000103A02D379
:1005200078C878C1FAD8520701D330C830C101D594
:1005300004680C607047000000230024002500269A
:10054000103A01D378C1FBD8520700D330C100D58F
:100550000B6070471FB5C046C0461FBD10B510BD2B
:100560000CF070F81146FFF7F5FF02F01DFE0CF0DD
:1005700088F803B4FFF7F2FF03BC02F040FE00006E
:10058000FCB40022002300240025002600270629B1
:1005900002D4FCC00639FAE7002902D004C00139B0
:1005A000FAE7FCBC7047000002B472B60178013172
:1005B000017062B60139080002BC704702B472B61D
:1005C00001780139017062B6080002BC7047000072
:1005D00062B6704772B670471C3880F3098870475E
:1005E000014802490160704704ED00E0000000107E
:1005F000114B1968114A1268914216D0EFF3098025
:1006000020380860F0C044464D4656465F46F0C06C
:100610001A6010681030F0C8A046A946B246BB4622
:100620002038F0C8103080F30988054B002018707E
:10063000042040420047000028030000240300007B
:100640001703000070B505460C46164602E00FCCB5
:100650000FC5103E102EFAD2082E02D303CC03C5CC
:10066000083E042E07D301CC01C5361F03E02178D4
:100670002970641C6D1C761EF9D270BD10B503463E
:1006800000201A460121890700E089089142FCD820
:1006900008E04418944203D8141A621A4C00201837
:1006A000400889080029F4D110BDFFB585B0074680
:1006B0000D461C4600200190802F06D08B2F0DD0B8
:1006C000A02F27D0A22F35D12CE0002D05D101205D
:1006D000800701906000694688812CE0042D18D1C4
:1006E000E007C00F0019C01C4000FB4940180190F2
:1006F00001988007800F002804D00198C01C800852
:1007000080000190E007C00F0019801C400069467E
:10071000888110E0052D04D1F04801906000694601
:10072000888108E0062D04D1ED48019060006946FB
:10073000888100E000BF00BF019800281CD0E94E6E
:100740002420708000207060472030700820707076
:10075000E448083002900221684681746100C1813A
:100760004474694607980874002101A802F030FC1F
:100770000021012002F0C4FA09B0F0BDFFB583B03A
:100780001C460E9D02950D9D01950F9D0095109D97
:10079000ED07ED0F002D7AD00626109D3540002D77
:1007A00050D000204AE04600039DAE5B4700049D08
:1007B000ED5FED10751B29B24500535F99421EDDB8
:1007C0000226109D3540002D06D045005153CD1A0C
:1007D0002DB24600A55330E04500555F019E75439C
:1007E000029E4E43AE19009D2E4135B246009553F0
:1007F0004500555BED1A2DB24600A5531DE00426B9
:10080000109D3540002D06D045005153CD1A2DB214
:100810004600A55311E04500555F019E7543029EB9
:100820004E43AE19009D2E4135B24600955345000A
:10083000555BED1A2DB24600A553401C0C9DA842F5
:10084000B1DB9DE000201DE04600039DAE5B47004C
:10085000049DED5FED10751B29B24500535F450007
:10086000555F019E7543029E4E43AE19009D2E4179
:1008700035B2460095534500555BED1A2DB2460042
:10088000A553401C0C9DA842DEDB79E0FFE706265D
:10089000109D3540002D50D000204AE04600049DB8
:1008A000AD5FEE104700039DED5B751B29B245005F
:1008B000535F99421EDD0226109D3540002D06D063
:1008C00045005153CD1A2DB24600A55330E04500E6
:1008D000555F019E7543029E4E43AE19009D2E4109
:1008E00035B2460095534500555BED1A2DB24600D2
:1008F000A5531DE00426109D3540002D06D045006F
:100900005153CD1A2DB24600A55311E04500555F55
:10091000019E7543029E4E43AE19009D2E4135B295
:10092000460095534500555BED1A2DB24600A55380
:10093000401C0C9DA842B1DB22E000201DE04600D7
:10094000049DAD5FEE104700039DED5B751B29B262
:100950004500535F4500555F019E7543029E4E431F
:10096000AE19009D2E4135B2460095534500555BAA
:10097000ED1A2DB24600A553401C0C9DA842DEDBAB
:1009800007B0F0BDFFB583B01C460E9D02950D9DCE
:1009900001950F9D0095109DED07ED0F002D7AD06C
:1009A0000626109D3540002D50D000204AE046001C
:1009B000039DAE5B8700049DED59ED10751B29B2B8
:1009C0004500535F99421EDD0226109D3540002DE3
:1009D00006D045005153CD1A2DB24600A55330E044
:1009E0004500555F019E7543029E4E43AE19009D22
:1009F0002E4135B2460095534500555BED1A2DB298
:100A00004600A5531DE00426109D3540002D06D05C
:100A100045005153CD1A2DB24600A55311E04500B3
:100A2000555F019E7543029E4E43AE19009D2E41B7
:100A300035B2460095534500555BED1A2DB2460080
:100A4000A553401C0C9DA842B1DBA6E000201DE090
:100A50004600039DAE5B8700049DED59ED10751BAC
:100A600029B24500535F4500555F019E7543029EC4
:100A70004E43AE19009D2E4135B2460095534500B8
:100A8000555BED1A2DB24600A553401C0C9DA842A3
:100A9000DEDB82E0FFE70626109D3540002D59D0B1
:100AA000002053E08600049DAD59EE104700039DE1
:100AB000ED5B751B29B24500535F994227DD022685
:100AC000109D3540002D0FD045005153CD1A2DB249
:100AD0004600A55339E00000903B0040905900408B
:100AE000705B0040005D00404500555F019E75430E
:100AF000029E4E43AE19009D2E4135B246009553DD
:100B00004500555BED1A2DB24600A5531DE00426A5
:100B1000109D3540002D06D045005153CD1A2DB201
:100B20004600A55311E04500555F019E7543029EA6
:100B30004E43AE19009D2E4135B2460095534500F7
:100B4000555BED1A2DB24600A553401C0C9DA842E2
:100B5000A8DB22E000201DE08600049DAD59EE10C8
:100B60004700039DED5B751B29B24500535F4500AF
:100B7000555F019E7543029E4E43AE19009D2E4166
:100B800035B2460095534500555BED1A2DB246002F
:100B9000A553401C0C9DA842DEDB07B0F0BD30B56C
:100BA000002A07D0CC07E40F64185D0064191A4DC1
:100BB0002C7003E05C006418174D2C704C1E174D10
:100BC0002C70441E164D2C70134C24786442641E05
:100BD00064B2144D2C700024E4436C700E4C2478E5
:100BE000641E64B2AC700C4C2478644264B2EC7045
:100BF000094C247864B22C71074C247801252C1BF5
:100C000064B2084D6C710124AC71034C2478641CEF
:100C100064B2EC7130BD000000020000010200006F
:100C20000202000003020000012110B5490348043C
:100C3000FFF7A6FC12490020087048708870114A1E
:100C4000012111701049088010490880104908706E
:100C500010BD10B5FFF7E8FF0E48002181748182B6
:100C600005F0D9F804F02AFA00F07BFE0A490B4897
:100C700005F025FF02F0FDFB04F0E2FF10BD0000CF
:100C80000C02000033020000D00300004E020000FE
:100C900061020000080C0000483A0000843A00009D
:100CA00010B50446002020642246403260649077EC
:100CB0000123D0779B07E3615B4B63635B4BA363CB
:100CC0005A4B0833E363A06490810122226510230C
:100CD000912213552061002901D000F046FE5448AE
:100CE0004078208310BD10B5524C0021207809F0C7
:100CF00097F9002802D0002004F0A6F8207809F027
:100D000041FA012010BD10B5112806D0122803D1D8
:100D10004949082001F0F4FF10BD47490420F9E7D4
:100D2000C00601D50120704700207047434800F0FD
:100D3000E6FE01F017F84248007809F023FE09F0BA
:100D400051FF0021084609F085F83A4C0121207036
:100D50003948FFF7A5FF0021084609F07BF86070CD
:100D60000121084609F076F83649314D0870697856
:100D70000C2001F055FE304C334E40342E4800F02C
:100D8000FBF80020305E002802DB00F09FFDF5E755
:100D9000A07F002803D00220A0770AF092FA2878DA
:100DA000FFF7BEFF00280ED1687800280BD022483C
:100DB0008030407C0009000110280CD0802810D021
:100DC000002004F041F82878FFF79DFFFFF78BFF24
:100DD0000028FBD0D2E780221021174800F030F91C
:100DE000F1E7607F002808D00021042001F088FF8F
:100DF000114800F07FFB002060770F4800F04CF9AD
:100E0000124904200856124909F060FEDBE710B5CC
:100E100008F0A4FF0748007809F0E2F90D490F2017
:100E2000C86208F0A0FF10BDE0230040005D004054
:100E3000103A000062020000880B0000903700406A
:100E4000D5CE00100B0200006602000090080000E2
:100E5000B43A000080000052F8B54A4E074601251A
:100E600049493570782048704848494CC57005702C
:100E70002168FF20887220684021C0680AF0FFFDC9
:100E80000020444964223B000BF05FFC08050B1571
:100E9000181414141F1408614861886108624862BC
:100EA00011E00861486188610862486288622168CF
:100EB000FA204880F8BD20684280F8BD08610862C9
:100EC0004861486288618862F5E708614861886125
:100ED00008624862886275703070F8BDF8B50446E3
:100EE0008034E18A2C4B0427CA1A274D00269942E8
:100EF00019D005DC294A89181ED0012939D10DE005
:100F0000012A26D00B2A34D10021042001F0F8FE5A
:100F10000021C943012002F08BF82AE07D20000166
:100F200002F092FA25E0208B062822D808202870AB
:100F30001449208B48801CE000F044F92873FF21FD
:100F4000532000064160076241628662C662016307
:100F50000FE0012129734030417711480170114899
:100F60001E2101804180FA218180C180077547756B
:100F70002E70E6820120F8BD10B5FFF7AFFF01200B
:100F800010BD000064020000103A0000C83A0000E2
:100F9000A82200004000005204080000FFF7FFFFF5
:100FA00061020000843A000053200006816AFC229E
:100FB0001143816204F02FFF04F080F800F0D1FCAF
:100FC0001849194805F07BFD02F053FA04F038FE89
:100FD00008F07AFD0AF0CEF8144C154E154D16495E
:100FE000207809F01DF8002802D0002003F02CFF23
:100FF000207809F0C7F80F48403800F087F8074616
:10100000307809F0C7F80D4800780028E7D1A87FAC
:101010000028E4D1002FE2D00021022001F070FE70
:10102000DDE70000483A0000843A00006302000057
:101030000B020000C80B000080969800103A0000D8
:1010400010B5034680331C465A7409022B4B1143DA
:10105000CA1A99421AD00ADC294A891A11D00122E7
:101060005203891A0DD02748C14205D107E0FF2A53
:1010700005D0FF3AFD2A04D0002003F0E5FE012050
:1010800010BD00F0C2F881206074F8E71E48417876
:101090000B2001F0C5FCF2E710B504468030407C1F
:1010A00081280AD083280ED084281BD0852807D019
:1010B000002003F0C9FE012010BD8322812119E028
:1010C0008022852116E0204600F0D0F8A06C01288F
:1010D00002D9842283210DE00B490B20497801F0CD
:1010E0009FFCE8E7204600F0C1F8A06C0028E2D1A0
:1010F000832284212046FFF7A3FFDCE784830000DE
:1011000080100000FDAEFFFF103A0000F1B503F0C3
:101110007DFF03F0FEFF2449224D0B7823492878F8
:101120000A780421FFF7C1FA214804F0AEF9214CF6
:1011300001462070204A1E4804F035FC20701C48EF
:101140002C21415E406807F001F907F023FE03F00F
:1011500078F91A490A68521C0A6019490A78002A63
:101160001ED000240C7000F0F9FB811C002210231B
:10117000047012260DE00C804C808C808C714A72B9
:101180000B72CF793743CF7107780A317F1C077014
:10119000521CAF789742EED84470009900784C64A6
:1011A000F8BD0000103A00004103000040030000B9
:1011B000E403000040020000440200000C3A00007A
:1011C0006002000010B50120FF23532109064B6087
:1011D00004220A624B6200228A62CA620B630A62BC
:1011E000FD244C604C620224CC608C618A62CA622D
:1011F0000B638C68CB620A63896810BD10B503214C
:10120000052001F00DFC012010BD1CB50446032192
:10121000052001F005FC124869460068114A408823
:1012200008800020C043488088800F49684609F044
:1012300073FC204600F05EF9002040346077012006
:101240001CBD0120704710B50321052001F0E8FB0B
:10125000012010BD10B5084608F09CFF10BD704776
:101260006821000050030000B43A0000F0B50646C3
:101270009DB00321052001F0D3FBF84C207808F045
:1012800081FF09F030FE6421207808F0C9FE0028B3
:1012900002D0002003F0D8FD207808F073FF09F099
:1012A00080FB002834D009F0D5FD6421207808F0B7
:1012B000B7FE002802D0002003F0C6FD207808F019
:1012C00061FF09F057FE6421207808F0A9FE00288C
:1012D00002D0002003F0B8FD0321062001F0A0FB9E
:1012E000DF4DE04C2878237828220021FFF7DDF934
:1012F0002878237801220521FFF7D7F909F051FB5F
:10130000002808D000F026FE2878862806D00BE0BA
:1013100009F034FDC9E700F000FEF5E700F03AFE01
:101320000021012001F0ECFCCF486421007808F096
:1013300077FE002802D0002003F086FDCC49CB4880
:101340000F780221C3191A795956C05700F015FEBB
:1013500028788A2805D100F028FE0021012001F01C
:10136000CFFC04F0DBFFC348C349C44A00780978C6
:10137000127803270192049702910390207800903D
:10138000BF4AC048BE4BA03ABE49A038FFF7FAFAA0
:10139000BD4804F06FFDBD48007900280FD12278C8
:1013A00001200421009201910390B9480297B44AA8
:1013B000B3490378A032A039B24805F0C9FAB5485C
:1013C000007800283DD008F076FB287823780122A9
:1013D0000621FFF76AF904F0AFFDAF48817D0029CF
:1013E0001ED0C07D00281BD0AC48A84B02782178C5
:1013F0001B790E91AA48A8490D920B900C932C22B0
:1014000014396846FFF71EF9A34820380EC80FA804
:1014100004F0C4FFA04838220FA92038FFF712F9C2
:1014200000F0CDFD9F4801783046FFF713FF002103
:101430003046FFF714FF306C401C306401201DB0B3
:10144000F0BD994808F0CDFB974808F025FCBCE7B3
:10145000FFB581B0002421460A9800F071FBC10756
:10146000C90F0818049EC0B246432046019900F0F7
:1014700067FC00902046029900F062FC07460025B8
:1014800009E00098A90040580399C0000AF003FB46
:10149000690078526D1CB542F3DB641CE4B2042C85
:1014A000D9D305B0F0BDFFB581B000242146049822
:1014B00000F046FBC107C90F0818C6B2039802998D
:1014C0004643204600F03CFC05462046019900F0CA
:1014D00037FC0146002006E082004700AB58CF5F92
:1014E000DB19AB50401CB042F6D3641CE4B2042CB0
:1014F000DCD3D6E7F0B585B00321052001F090FAE2
:1015000008F018FA574E654F0024544D287808F01B
:1015100039FE09F046FA002832D009F09BFC64211C
:10152000287808F07DFD002802D0002003F08CFC14
:10153000287808F027FE09F01DFD6421287808F0BE
:101540006FFD002802D0002003F07EFC09F029FA8C
:10155000002818D000F0FEFC022C17D3732189015B
:1015600033783A784810FFF79EFF002000904449F6
:10157000444833780122A039A03805F08CF91DE0E9
:1015800009F0FCFBCBE700F0C8FCE5E7002C15D127
:101590000025E9B2307800F0D3FA397802464A43A0
:1015A0007321E8B2890100F0C2FB6D1C042DF0DB51
:1015B0003348FF214131A0380AF061FA641CE4B2DB
:1015C000122CA2D33078009073203B781022374938
:1015D0008001FFF73DFF00230322317801206C4694
:1015E0000FC4274C0423A03C10222649204605F0B6
:1015F0006FF9A02120460AF042FA2D4D00243878D8
:10160000142148434208E0B2294600F090FB641CD4
:10161000042CF4DB0321062001F002FA012040E74C
:10162000174A10B5A03A0F4B002108461B7807E077
:101630004400145F0A2C01DD491CC9B2401CC0B231
:101640009842F5D31E2901D9012010BD002010BDFC
:1016500090422FDD884200DC084670470D030000F1
:10166000103A0000410300000B0200002C3A000079
:101670000D020000D8CE0010D7CE0010D6CE00103C
:10168000105C0040305A0040C01B00009008000071
:10169000D9CE001032020000600B000040030000B1
:1016A000780B000063020000781F00009015000016
:1016B000F02300009142CFDC1046CEE7F0B50026C3
:1016C00005460B46304637462C4C05E041006A5A29
:1016D0005A52401C6F52C0B221788842F6D3002083
:1016E00005E042009A5A9219401C16B2C0B28842D4
:1016F000F7D3002726E0002F09D0401E874210D1E3
:1017000078008446C01840383C22825E0FE00422F4
:10171000022100209A5E595E185EFFF799FF28802B
:101720000EE078008446C0180222825E40383E21D6
:10173000415E6046185EFFF78BFF01466046295206
:101740007F1CFFB220788742D5D33046F0BD10B55C
:10175000029C904202DD884205DC01E0914201DDFD
:10176000084600E01046A34200DC2346984200DC15
:10177000184610BD884200DC08466EE741030000B1
:1017800070B5694A694C11020020694D03E04300BD
:10179000D65ACE52801C23782E7873438342F6DCCF
:1017A00070BDF3B581B001270321052001F038F9A0
:1017B000029810255F4E0024002833D0012831D034
:1017C00002282FD0032830D0002700210198FFF7EE
:1017D00067FA594D287808F0D5FC09F060FB6421C0
:1017E000287808F01DFC002802D0002003F02CFB14
:1017F0005248C460287808F0C5FC09F050FB642109
:10180000287808F00DFC002802D0002003F01CFB13
:101810004B484D4904704B4804700020C043088079
:101820003846FEBDFFF718FB03E0FFF715FB434802
:10183000C4603570C9E700214448B2E7012143483C
:10184000AFE770B5424D3D4C002620682861286204
:10185000606868616862A068A861A86202213B486C
:10186000FFF79FFF012E1AD031480078C107C90F3A
:1018700008182E49097848434200012189072A485F
:10188000FEF7E0FE2068761CC04320606068C0431D
:101890006060A068C043A060022ED6DB70BDFFF779
:1018A0006FFFEFE710B5FF2029214906C8602948DE
:1018B000102181630163032001F013F90321234800
:1018C000FFF76FFF002001F00CF910BD10B51E48A6
:1018D0000024045F002C06D0012C07D0022C08D075
:1018E000032C0BD108E0FFF7A6FF07E0FFF7A6FFE8
:1018F00004E0FFF7A6FF01E0FFF7D4FF0720FFF7A2
:10190000ABFA01211148FFF7CBF9042C07D00848A6
:1019100000210378054802788020FEF7C6FE0549BD
:101920000120087310BD00000000405E400300006D
:1019300041030000103A00000D0300006C0200009B
:10194000640200006802000066020000880B0000CC
:1019500040000052C0030055224870472148801EB5
:101960007047214900200860704730B51F480022A9
:1019700001781C48723001701D49097841701D4979
:101980000B8D83824B8DC3828B8D0383CB8D4383E1
:101990000C4620340346257C20339D70647CDC702B
:1019A0000B8F83848B18203384189B7C521C2377E5
:1019B000062AF7D300210A4604E04B001B181A71CF
:1019C0005A71491C83788B42F7D830BD00200649F4
:1019D0000246091D0B18401CC0B21A730C28F9D31B
:1019E000704700001A3B00000C3A00004003000062
:1019F00041030000C00200100A04120E334B12040F
:101A0000090618401043090D08437047F0B59C467D
:101A100093046446DB0CA4052343059C8500E40580
:101A2000A40A23432A4C88006659FF308130335082
:101A3000082901D2002000E004200126130CB6037F
:101A4000B34201D1002300E002235204D60F42002A
:101A5000891A1E4389000F228A4007466359583766
:101A6000BE46DF598E40974337431E467346F750B4
:101A7000675903466033FE58BE46059F9643FF04F0
:101A80003F0F8F403E437746FE50645968302358DD
:101A9000934362469204120F8A4013432350F0BDD1
:101AA0000D239B06C91801604260704710B592046F
:101AB000D20C9B05029C1A43E3059B0A1A430D2393
:101AC0009B06C9180160426010BD00000FF000FFC6
:101AD000ECC9001008B50090292040064169022297
:101AE000114341618169FF22114381614169FD22F6
:101AF000114041614169012211434161FEE7032127
:101B00008907012210B54118D203914202D3002067
:101B1000FFF7E0FF8D4C002121706170A1606060D3
:101B200008468B4A01218300D3581961401CC0B27A
:101B30000428F8D30021012008F08CF9A07010BD12
:101B4000C208D200821A1206824B920DD218C00827
:101B5000515C40000818C0B2704710B57B490020A6
:101B600014317A4C0860E078182148437A494018CB
:101B70008268002A04D02169E0689047002806D0D6
:101B800008F0ECF8A07808F02BFB08F0ECF810BD9A
:101B90006F4908684069C0070AD009680120886158
:101BA0006A491431087008686C49884200D1D4E74A
:101BB0007047674948684069C0070AD049680120F2
:101BC000886162491431487008686449884200D1CC
:101BD000C3E770475E4988684069C0070AD08968D2
:101BE0000120886159491431887008685B4988422E
:101BF00000D1B2E770475649C8684069C0070AD0AB
:101C0000C9680120886151491431C8700868534976
:101C1000884200D1A1E7704770B54C4C054620784A
:101C20000A2801D301200BE06969CA0701D002200C
:101C300006E0A268891801229202914202D903208B
:101C4000FFF748FF18214843434E0A4680192946AA
:101C5000FEF7F8FCA168606818224018217851430B
:101C6000891908616A69296909F0A1FE2078401C78
:101C7000C0B220706969A2688918401EA16070BD59
:101C800010B50C4631490978814202DC0420FFF787
:101C900021FF1821484330490B58002B03D011462F
:101CA0002046984710BD012010BDF8B5274C0546C9
:101CB000207816460F46A84201DC042019E060781F
:101CC000002801D0052014E0E570E7602661A078C7
:101CD00008F058FA182045431F4831462D186A6805
:101CE000384690476421A07808F09AF9002802D07D
:101CF0000620FFF7EFFE1549002014310860EA685E
:101D0000002A02D03146384690470020F8BD0F48DF
:101D10001821C078484310494018006970470B48A3
:101D20001821C07848430C4940184069704710B5E5
:101D30000B4B8000185840181146FEF721FC10BDCF
:101D4000074A800010584018704700007C020000CD
:101D5000ECC900100CCA0010680C00000101010160
:101D6000FCC90010F8B5FE4FFC48FE4CF860207826
:101D7000FD4EC107C90F08187882307838750025E4
:101D800029462078FFF7DCFE79190872C107C90FD0
:101D9000401869006D1CEDB27852042DF0D3732009
:101DA00040013882012078752078F04AC107C90FB8
:101DB00009184800EA4D80181835E860820703D0FA
:101DC000C01C80088000E860891C69823078287512
:101DD000002739462078FFF7B3FEE9190872C107DA
:101DE000C90F401879007F1CFFB26852042FF0D34E
:101DF000BB208001288200276F75DD48FFF70CFFAC
:101E0000DC4D0121A860D64889072C380160217873
:101E1000CA07D20F521882800122C2807322520157
:101E200042810781072202738273D14A30320261F4
:101E30003432426132784273C1730776CC484838F5
:101E4000FFF7EAFEC64A2860103A11461C39FFF730
:101E500017FFC3487321490130300180C6494180D2
:101E6000C649818073218901C18007818910418120
:101E7000BB2189018181032181730821C1733178DC
:101E8000C17421780175BA483038FFF7C5FE686023
:101E9000B348BA4948300180317881712178C171E5
:101EA00073214780090181800772B1481830FFF71C
:101EB000B3FEE860AA48B149683001803178817189
:101EC0002178C171AE490161AE49C160732147807B
:101ED00009018180A6481838FFF79EFE2861F8BDE9
:101EE00010B5A9489E49428868314A818088088196
:101EF000A04800220069FFF7D8FE10BD984810B531
:101F00004830A2490161891EC160024601469948D4
:101F10001432C068FFF7C9FE10BD914810B5072103
:101F20002C3801738173924902463031016134319A
:101F3000416101468F481C320068FFF7B6FE10BDB4
:101F4000874A10B5103A8B4811461C390068FFF7D4
:101F5000ACFE10BD824810B507212C380173817387
:101F60008349024630310161343141610146814883
:101F70001C320068FFF799FE10BD794B10B5303365
:101F8000187459749A747B48002219464068FFF708
:101F90008CFE10BD10B57320714940010882754850
:101FA00000228068FFF781FE10BD10B56C497348B0
:101FB0000882704800228068FFF777FE10BD10B5D8
:101FC00067496C48002218318068FFF76EFE10BD2B
:101FD000F0B585B00446FFF79AFE05460120A9B288
:101FE0000027C007081803910290207D3946FFF7AB
:101FF000A7FDC107C90F0818C0B20190E07CBE0060
:102000004006410C01980143614880590164FFF783
:1020100086FE039941185E48805941605C490298E8
:10202000895988605A4900208959486401260096D8
:10203000014622883846019BFFF7E8FC009662883B
:1020400001213846019BFFF7E1FC0096A28802219E
:102050003846019BFFF7DAFC0096E28803213846F8
:10206000019BFFF7D3FC0096228904213846019B8F
:10207000FFF7CCFC0096628905213846019BFFF7EB
:10208000C5FC0096A28906213846019BFFF7BEFCDD
:102090007F1CFFB2042FA8D30F2161566868FFF799
:1020A000ABFC68600E2020564142E868FFF7A4FCB4
:1020B000E860112161562869FFF79EFC2861102114
:1020C0006156A869FFF798FCA8611220205641428A
:1020D000286AFFF791FC28622D49002082008A5867
:1020E0001660401CC0B20428F8D3012005B0F0BD32
:1020F000F0B585B00446FFF70AFE0190012180B2D9
:102100000026C907039040180290E0793146FFF796
:1021100017FDC107C90F0818C7B2A0791C494006AE
:10212000B500400C495938430864FFF7F8FD03999E
:10213000411817484059416015490298495988602B
:102140001349002049594864012500950146228819
:102150003B463046FFF75AFC00951BE0005D00400F
:10216000840D00004103000040030000963B004046
:102170001CCB00109402000090150000F02300001A
:10218000D81B00001C1D0000003A0000820B00005C
:10219000ECC9001062883B4601213046FFF736FC4F
:1021A0000095A288002302213046FFF72FFC0095FE
:1021B000A08879004218002303213046FFF726FC4F
:1021C0000095A088B9004218002304213046FFF78B
:1021D0001DFC0095A188062078430A1800230521DC
:1021E0003046FFF713FC0095A2883B460621304697
:1021F000FFF70CFC761CF6B2042E86D32089401E15
:1022000001B201984068FFF7F7FB019948600A2086
:10221000205EC1430198406AFFF7EEFB01994862D6
:10222000FE49002082008A581560401CC0B2042874
:10223000F8D301205AE7FEB500218183C183816173
:1022400004460D464161002001900090E07900991C
:10225000FFF776FC0646C007C00F8019C7B273218E
:1022600009010098FFF76CFD6F4379004118002DBC
:102270000CD0022D05D0012D2BD020461E3000227F
:1022800031E0019A0020920094461FE0019A00205C
:10229000920094460AE042008700E3688A5E674441
:1022A000DA5163699A18401CC0B26261B042F2D33D
:1022B0001BE042008A5A87005242236912B26744E7
:1022C000DA51A3699A18401CC0B2A261B042F0D39F
:1022D0000BE020461C30D2E757000388CF5BDB19A8
:1022E000521C0380D2B2B242F6D30198801900B2D8
:1022F00001900098401CC0B200900428A6D36D1C29
:10230000EDB2042D9FD30120FEBDF0B5044687B089
:1023100000200290FFF7FBFC0190607D0021002867
:1023200008D0E068242242804722416002700822DF
:10233000427002920198002581B2081D059001208B
:10234000C00708182F460490217D6019007A4906BD
:10235000490C0843B149AE0089590864AF490020CF
:10236000895948640120009068000390235A228A0A
:1023700000212846FFF74AFB012000900298E168FF
:1023800038180A18638A01212846FFF73FFB039893
:10239000A249205A89594000C01987B2059848605F
:1023A0009E490498895988606D1CEDB2042DCBD3E9
:1023B00001989B4901600020984901228300CB5875
:1023C0001A60401CC0B20428F8D3012007B0F0BD49
:1023D000FEB504460191FFF79AFC06460199206973
:1023E00088600199E06848608E4931608E4971606B
:1023F000207A08278D4A8E49022804D0B260207ABC
:102400000C27012801D0F1513F1D01210025B0B258
:10241000C90740180290E0792946FFF791FB01991E
:102420007E4A4855C107C90F0818C3B2A0794006B3
:10243000410C1943A80012581164784A002112581F
:102440005164764A029912589160744AF1191058F1
:1024500089B2416001200090228800212846FFF7C0
:10246000D5FA012000900146628800232846FFF734
:10247000CDFA01200090A288002302212846FFF710
:10248000C5FA6D1CEDB2042DC5D30020634A0121AD
:102490008300D3581960401CC0B20428F8D301202F
:1024A000FEBDF8B50546007A0C4602281BD0614FE8
:1024B000002669883046FFF743FC02460020A35DF2
:1024C00006E04100515EB94200DA0F46401CC0B23E
:1024D0008342F6D8761CF6B2042EEAD360680780F1
:1024E000287A012819D0534F7F420026A988304608
:1024F000FFF726FC02460020A35D06E04100515E86
:10250000B94200DD0F46401CC0B28342F6D8761CAB
:10251000F6B2042EEAD3A06807800120F8BDF0B51A
:102520000024817BA44627468E462BE000231A46D2
:102530001946067B15E005692D5D95400832294353
:10254000D2B2202A0AD365464269AD0052598A4266
:1025500011D16146491C8C46002211465B1CDBB23E
:10256000641C9E42E7D8002A0AD062464369920062
:102570009A588A4201D00020F0BD6146491C8C4621
:102580007F1CFFB2BE45D1D80120F0BD00B5FFF7DA
:10259000C6FF002800D0012000BDF0B585B00C4674
:1025A0000546FFF7B4FB02900120607200272773F5
:1025B000287BC01C8008E072A97B687B09F061FA67
:1025C000A072A97B4843697B884205D0081A207213
:1025D000A07A401CA07200E027720298002681B207
:1025E000081D04900120C007081801960390E87B9D
:1025F0003146FFF7A5FAA1190871C107C90F4018A4
:10260000A05500200549B700C9594864E8880090E2
:1026100029680198AB880A1800210DE0ECC9001068
:102620000010C0230010000C0020000C101000212E
:1026300020204021FF7F00003046FFF7E7F9287B8C
:1026400001282FD0A17A2A8941434806A15D400C78
:102650000843DA49C9590864012000900146A35D86
:102660003046FFF7D3F9D5490498CA595060CA5982
:1026700003989060A05D761C42000198F6B2101895
:1026800080B20190042EB2D30298CD4A026000209D
:1026900001228300CB581A60401CC0B20428F8D332
:1026A000012023E5697B6A894906A05D490CCFE7D3
:1026B000F8B517460C460646002501200090607BC1
:1026C000A17B7B5D401A8019584361894000421804
:1026D000E8B20121FFF79AF96D1C042DEDD3FA7AC7
:1026E000B64D1046724380188646002310E09100D4
:1026F0008C4600209900803166696746F65987004C
:10270000EF597E50401C0428F6D35B1CDBB2521CF0
:102710007245ECD3F8BDF8B517460C4606460025C1
:10272000012000907B5DA17B18464B43618970437B
:1027300040000A18E8B20121FFF768F96D1C042D6A
:10274000EED3FA7A9D4D10467243801886460021DA
:1027500010E093009C4600208B008033666967463A
:10276000F6598700EF59FE50401C0428F6D3491C47
:10277000C9B2521C7245ECD3F8BDFEB50C460546F5
:10278000FFF7C5FA0746287B032101287ED0607A2F
:102790000128207B1BD0401CC0B22073AA7B904232
:1027A00074D222462946FFF783FF00200122834985
:1027B000BDB2D307C4002C19E61884000F59BE60BF
:1027C0000C592260401CC0B20428F3D37DE0401CA9
:1027D000C0B22073AA7B90423DD8012833D1207A21
:1027E0000028A07A01D0401EC0B200264006400C4E
:1027F0000290B8B2019001200090A35D287B2A8945
:10280000434300213046FFF701F9A15D02986B4A6E
:102810000143B00012581164684918220958AA5699
:102820004A64297B674BA25D090419430A43F100FE
:102830007A50019A5118614A091D10584160761C5E
:10284000F6B2042ED7D3207B2246401EC0B22946C2
:10285000FFF761FF28E0207A002838D0101A207393
:10286000022060720026A05D5449B2008958FF30F2
:1028700001300864207B22462946FFF719FF01201A
:102880000090A35D287BA17A584300E01FE0491E19
:10289000484329894000421800213046FFF7B6F826
:1028A000761CF6B2042EDED3002001224349BDB2CD
:1028B000D307C4002C19E61884000F59BE600C59C8
:1028C0002260401CC0B20428F3D30020FEBD617218
:1028D0000120FEBDF8B501203B4B800718603B4846
:1028E000FE2200787324411C114099800121D98077
:1028F00064015C8100221A8107211973344907257C
:10290000097859739D73D8731A76324D1D616C35F1
:102910005D615C331C802C4C2F4B5C3463802A4BF4
:102920002E4C5C339C80284D73239B015C35EB80DF
:102930002B4673251A812D01BB265D81B601224FDE
:102940009E8103235C37BB730823FB733B46D9741A
:10295000187518331C809971D8715A809D801A722D
:1029600020331C8099711E4FD8711F611D4FDF608D
:102970005A809D801C4B1D4DD87199711D80083364
:10298000D8719971104B7325B433D8719971AD0119
:102990009D800A33197258720F4D9D805C800C33F4
:1029A0001E80D87299729A80DA800F481A461438BD
:1029B000AE3A05490068FFF763F9F8BDECC90010AD
:1029C0000010C0230010402F580D000041030000EC
:1029D000400300004CCB001090150000F0230000D5
:1029E000D81B00001C1D0000A8020000202B0000C6
:1029F00010B501462C4809F044F8420A2B49012041
:102A000048602A480023403003620F23C3620261FA
:102A1000FF224261826103224A600421016210BDEB
:102A200070B5401F0C46224D030009F08EFE0817BA
:102A3000191D1D1D0D05081D2868844217D0084664
:102A4000FFF7D6FF2C6012E029225206506BC9B264
:102A5000FF231B0218400843506308E0012000E0F8
:102A6000002000F012F802E0002002F0EDF9012051
:102A700070BD10B500F09EF800F0CEF800F01CF824
:102A80000A490F204031C86210BD10B5002803D09C
:102A9000084600F04EF810BD0648C0780028FAD16C
:102AA000084600F027F810BD40D2DF034000005276
:102AB000B8020000C83A00003D2002490004086343
:102AC000704700004002005510B5544C03202168A7
:102AD00008F0A8FA20685249401C20601020886342
:102AE00010BD0021022801D0032800D14D4900204B
:102AF0008165704710B529214906CA680C239A439D
:102B0000CA600222484B012807D0022805D00328BA
:102B100007D0002002F098F910BD5A6043480862BF
:102B200010BD5A6042480862C8688006800EC860BE
:102B300010BDF8B529214906CA680C231A43CA609A
:102B40000327394C012200280DD0032805D0052881
:102B500005D0002002F078F9F8BD676001E002209E
:102B600060600A62F8BD33488B6B80691B021B0AE8
:102B700018438863F720C00108622B4E00254036B9
:102B8000356007207060B06067602B480862284895
:102B90007C3008620A6225616561A5612562656213
:102BA000A562264800F015FB35601F207060B060FC
:102BB0006760F8BD70B5224CA06B00218A00121925
:102BC0001268491C801A0E29F8D321681D4A29254C
:102BD0006D06914217D1E16B1B4A914213D1002837
:102BE00010D1A0680104E06800020143206901439C
:102BF0006068C0B206F08BF96069A16928630802B9
:102C00000830686370BD402028631048686310492D
:102C1000072006F07CF970BD00208AE778020000EA
:102C2000C0030055C92A001040000052A57F0000D3
:102C300005780000A0CE0010817A000030750000F9
:102C400080070120100410201306741908400000AA
:102C500020202000F0B52649244808622548016854
:102C6000090A090201600368FF21090203228B435C
:102C700092039B18036004680B029C4315026419BD
:102C8000046004682602360A8C0536190660466818
:102C9000360A3602C036466046688E43B61846602D
:102CA000466801279E43BF05F6194660466836020E
:102CB000360A36194660C6688E43B118C160C168CD
:102CC00099434919C160C1680902090A0919C1601B
:102CD0000169090A0902C03101610749401708600A
:102CE0000549064880390860F0BD00000000C0803A
:102CF00000ED00E000E400E080E100E0E1F0010030
:102D00000521042284230907012807D0022803D0C3
:102D100004280AD0082809D10A6007E00A600020C8
:102D200000BF401CC0B2C828FAD30B600120704716
:102D300001228105D203801A8003000E8200974889
:102D4000890D8058002800D04018704710B5C2B2D5
:102D5000924B000A4400203B1B5B934202D80020A8
:102D6000088010BD8D4C8000603C205880189A1A55
:102D70000A8010BDF8B58B48894C406AFF2180005D
:102D8000800C01310D1A60782178000208438649D1
:102D9000022D48601CD050DD0126F602811B20293F
:102DA00036D2FEF713FE60782178000208437F498F
:102DB000A278C882801B0D460126403D0A83002868
:102DC0000AD010281ED0152808D016281DD10BE0D7
:102DD000294600F07FF830E06E7716E000210420ED
:102DE000FFF78EFFAE7710E070490020EE77803954
:102DF000221893780A186032401CC0B213702E2833
:102E0000F6D302E06A4910200870FEF700F814E0DB
:102E100001210903884210D26946FFF797FF002875
:102E20000BD069460988AD1EA94201DD69460D80B7
:102E300069460A88A11C08F0BAFD0120F8BDF8B562
:102E4000584E4036776A0020C043F062F80501D53D
:102E5000584821E0B806544D800F1FD0514C60688F
:102E6000C007FCD052480078122803D10021082066
:102E7000FFF746FF69783846FFF77CFF02202060A5
:102E8000012020600C2020624548A0624A48206250
:102E900000206870FF2001303062F8BD7800FCD55A
:102EA000464968688842F8D106F058FF287807F04C
:102EB00097F906F058FFF8BD10B56C2000F04CF8FB
:102EC0000020394C0146607006F0C4FF207007F006
:102ED00059F910BDF8B509260446B6010025801B36
:102EE000762808D200210420FFF70AFFFEF736FDFE
:102EF0000019801B1BE001200003844204D2A0B211
:102F00006946FFF723FF12E02D49261A8E4206D2AA
:102F100000210420FFF7F4FE2A48354609E001218C
:102F2000C903611A814216D2A0B2FFF701FF00283F
:102F300011D043191B480421403001601949022275
:102F40000A6101220A61052109078A6083601E491E
:102F50000160491E0160F8BD30B5842105221207C9
:102F6000116001231361002414620E4902250D60D3
:102F70000B600D610B617F231B021843D0610C2095
:102F80000862074888620C4808620648611E4030A3
:102F9000C162C462E901016230BD000050CC001082
:102FA0002E0E000080000050BC020000080C000043
:102FB000103A000030000040090000014202000009
:102FC000C81C0000005D00400900FFFF01207047A1
:102FD00010B5827B042A01D0022A21D000231522B9
:102FE0009206046894614468D4619360037B447BD7
:102FF0005B1E1B04641E2343D3600389847B1B0474
:10300000234313614389807B1B04034353610120E5
:1030100090621060002902D050680028FCDB10BDCF
:103020000123DCE7012115208006816201627047DF
:10303000F3B583B00E46FEF791FC292403980025D2
:10304000640601280BD0022809D0032807D00428E1
:1030500069D0002001F0F8FE012005B0F0BD374F27
:10306000314678690090364808F00BFDE96B029113
:10307000296C0191216A490849002162216A314A7B
:103080001143216230490D62FF22CA623D612F491E
:10309000E9632F492964A168FE221140A160216AD9
:1030A000022211432162002100BF00BF00BF491C62
:1030B0003229F9D3216A01229202114321620127A8
:1030C00067621E494861886107220A6103980328E4
:1030D00016D030460099FDF7F3F9206A000C000481
:1030E0002062206A3843206265620298E863019892
:1030F0002864194817490160134804210162ABE7AD
:103100000098761C0BD0154B236230BF25625123EB
:103110001B061D60486188610A61A760DDE70F4BEF
:1031200009332362F2E70C497D2000010D60A061A4
:1031300003206061012060618EE7000000E000E094
:1031400050C3000084FB0000800000520301000017
:1031500007010000E120000000E100E0A67F000080
:10316000FEE710B5FDF7B8F910BD10B506F02BFE5F
:103170001B4B1C4A00211C4807F031F91B4B1C4A11
:1031800000211C4807F02BF906F040FE10BDF92184
:1031900053200006416004210162FF2141620022A8
:1031A0008262C2620163704710B5FFF7F0FF05F05D
:1031B00091FEFFF75EFCFDF789F9FFF733FFFFF79C
:1031C0007BFEFFF747FDFDF72FFDFFF7CEFF012048
:1031D00010BD002101E000BF491C8142FBD37047B4
:1031E0006C150000099001002D0D00101C1A000044
:1031F0000A2C0100A90F001003460A467047FEE79B
:1032000030B5024600208C4C014653569B001B19DA
:103210005B684D00AB40491C1843C9B21029F4D378
:1032200030BDFFB581B00D4606461C4610210A9FF1
:10323000039808F022FCB878B04254D8F978B1422B
:1032400051D3301AC3B20020E278A17803E09B1A70
:103250000818DBB2C0B29A42F9D9421E8A18267AFF
:10326000D2B2964204D8701AC0B2421E8918CAB2AD
:10327000002D0AD0012D0FD0202A34D320281FD2B0
:103280002021081AC1B200201DE010282BD2102ADC
:1032900000D30F22002124E0202824D2102A22D398
:1032A000102804D21021081AC1B2002002E0103800
:1032B000C0B20021202A01D30F2212E0103A03E00D
:1032C00000212038C0B2203AD2B20AE0E578666820
:1032D0004D4375195E5D039D2E54401C491CC0B2C0
:1032E000C9B29042F2D905B0F0BD30B50446002015
:1032F00085B02E2C04D2102C16D26100012012E0D1
:103300001378A34212D85578A5420FD30022497AE8
:1033100003E0521C8000D2B2401C9142F9D8E21A5C
:103320004A435100091D884005B030BD0B4600924C
:1033300001AA00212046FFF774FF01A8FFF760FFF4
:10334000F2E730B50446002085B02E2C05D2103CA3
:10335000102CE9D26100012013E01378A34215D8A4
:103360005578A54212D30022497A03E0521C80000E
:10337000D2B2401C9142F9D8E21A4A4351001C399A
:1033800001D48840D0E74942C840CDE70B460092BF
:1033900001AA01212046FFF744FF01A8FFF730FFF3
:1033A000C2E730B50446002085B02E2C05D2203C63
:1033B0000E2CB9D26100012013E01378A34215D876
:1033C0005578A54212D30022497A03E0521C8000AE
:1033D000D2B2401C9142F9D8E21A4A4351003C391A
:1033E00001D48840A0E74942C8409DE70B460092BF
:1033F00001AA02212046FFF714FF01A8FFF700FFF2
:1034000092E770B505460C46007AA9784018401E30
:1034100008F041FB697A064608462D3008F031FB7A
:103420002E30A070E97871434118491EE1702E21B9
:103430002170401E607070BD60CC001010B5014658
:103440000120FFF7C3FD10BD10B501460420FFF7B2
:10345000EFFD10BD10B501460120FFF7E9FD00208A
:1034600010BD10B501460320FFF7E2FD002010BD9E
:10347000704700B5FE480078801CFE490870FE4881
:103480000078C007C00FFC4909784018801CFB4930
:103490000870FFF7EDFF00BDFFB50A9CFF25013561
:1034A0000098284000283FD00398026809980368D4
:1034B0000F2A0BDBF248C0880A38904206DB0A2B41
:1034C00004DBEF4800891438984226DA2C20604348
:1034D000EC4D401920304078401CC5B22C20604390
:1034E000E84E8019203045702C256543AD1908261B
:1034F000AE5F2C256543E34FED190A27EF5FF01906
:10350000002801DB054600E045421E2D0CDA02983A
:10351000002809D11020014306E000252C2060433B
:10352000D84E801920304570C8B204B0F0BDF0B557
:1035300089B004460D467F26F605A100D24A5058B0
:10354000D249096809F040F9A100CF4A5050A100C2
:103550005058CF49096809F037F90746A100CA4A0F
:103560005058394608F07EFE0646284608F074FF9B
:103570000690C8480168069809F0D0F931460790CE
:1035800009F068F90746C3480168384609F01CF994
:10359000C0490860A100BC4A505808F039FE0591A6
:1035A0000490304608F034FE0022BB4B019100909D
:1035B00008F0E4FC03910290059B049A08F0F4FCE7
:1035C0000791069008F00AFBA100AF4A505009B0DD
:1035D000F0BDF0B589B004460D467F26F605A10082
:1035E000AE4A5058A949096809F0EEF8A100AB4A63
:1035F0005050A1005058A649096809F0E5F807465F
:10360000A100A64A5058394608F02CFE0646284626
:1036100008F022FF0690A2480168069809F07EF99A
:103620003146079009F016F907469D48016838466B
:1036300009F0CAF89A490860A100984A505808F061
:10364000E7FD05910490304608F0E2FD0022924B20
:103650000191009008F092FC03910290059B049A5E
:1036600008F0A2FC0791069008F0B8FAA1008B4A76
:10367000505009B0F0BDFEB504460D4616461F4633
:10368000306801903868009000200899085E08F0C2
:10369000E3FE8349086000200999085E08F0DCFE1B
:1036A0007C4908607F480078002813D0FF20013053
:1036B0002840002806D07C48744908607B4874493B
:1036C00008601AE07A487149086001208007704953
:1036D000086012E0FF2001302840002807D0FD20BC
:1036E00080056A49086073486949086005E06E48CA
:1036F000664908606D48664908606F48005D0028AB
:1037000015D101206C4908557F20C005A100634AEE
:103710005050A1005C4A5050019808F09DFE60494D
:103720000860009808F098FE5A49086009E001987E
:1037300001B220B2FFF74DFF009801B220B2FFF7AF
:10374000F6FE5748006808F03DFE306051480068BA
:1037500008F038FE38600020FEBDFFB58FB004468B
:1037600016461F46189D00BF00BF00BF00BF53484C
:10377000007840005249085A0E90504800784000A6
:10378000085A0D904D48007841004D48001D405AA0
:103790000C904A48007841004948001D405A0B905F
:1037A0004848007902280DD1444800784000444937
:1037B000085A40000E90414800784000085A4000E6
:1037C0000D9018E03D48007840003D49085A0E90A1
:1037D0003A4800784000085A0D9038480078410077
:1037E0003748001D405A0C90344800784100344856
:1037F000001D405A0B902C2060432249411818208C
:10380000085E3168401A08D42C2060431D494118D5
:103810001820085E3168401A07E02C206043194ADE
:1038200080181822825E3168881A09902C20604323
:10383000144941181A20085E3968401A08D42C200F
:103840006043104941181A20085E3968401A07E0A1
:103850002C2060430B4A80181A22825E3968881A2D
:1038600008900999089808180790099908982BE07A
:10387000400300004B020000410300004C02000026
:10388000103A0000AC080000481A0000CC0200000A
:10389000D0020000C80200000000F03F201A000023
:1038A000C4020000320200009A99593F0000C04053
:1038B0003333733F00002041701A00000D020000F6
:1038C0000C3B000090080000081806900999089821
:1038D00008180A901098C007C00F00287ED00A9AD6
:1038E0000E99881808F0B8FD05900A9808F0B4FD04
:1038F0000190306808F0B0FD0090019908F0AAFF2F
:1039000003900E9808F0A8FD01902C206043FD4A1A
:103910008018416A019808F09DFF0290039908F011
:1039200053FF0490059908F09DFC2C216143F54A52
:10393000891848620A9A0D99881808F08DFD05903B
:103940000A9808F089FD0190386808F085FD00901C
:10395000019908F07FFF03900D9808F07DFD01901C
:103960002C206043E74A8018816A019808F072FFB2
:103970000290039908F028FF0490059908F072FC62
:103980002C216143DF4A891888622C206043821809
:103990000620105E0022AA5E801A09D42C20604303
:1039A000D84A82180620105E0022AA5E801A08E01B
:1039B0000022AA5E2C206043D24BC0180623C35EAF
:1039C000D01A014664312C206043CE4A821806206A
:1039D000105E0022AA5E801A0BD400E024E02C20A6
:1039E0006043C84A82180620105E0022AA5E801A30
:1039F00008E00022AA5E2C206043C24BC0180623B8
:103A0000C35ED01A0022AA5E50432C226243BD4BF3
:103A1000D31806229A5E64235A438018059008F052
:103A20003AF800B22880A1E0079A0C99881808F0AB
:103A300013FD0590079808F00FFD0190306808F01D
:103A40000BFD0090019908F005FF03900C9808F019
:103A500003FD01902C206043AA4A8018416A019816
:103A600008F0F8FE0290039908F0AEFE0490059964
:103A700008F0F8FB2C216143A24A89184862069A93
:103A80000B99881808F0E8FC0590069808F0E4FC0B
:103A90000190386808F0E0FC0090019908F0DAFE27
:103AA00003900B9808F0D8FC01902C206043954AB5
:103AB0008018816A019808F0CDFE0290039908F001
:103AC00083FE0490059908F0CDFB2C2161438D4ABB
:103AD000891888622C20604382180620105E00221C
:103AE000AA5E801A09D42C206043864A82180620D8
:103AF000105E0022AA5E801A08E00022AA5E2C2036
:103B00006043804BC0180623C35ED01A014664315F
:103B10002C2060437B4A82180620105E0022AA5E99
:103B2000801A09D42C206043764A82180620105E41
:103B30000022AA5E801A08E00022AA5E2C206043C0
:103B4000704BC0180623C35ED01A0022AA5E5043F1
:103B50002C2262436B4BD31806229A5E64235A438D
:103B60008018059007F097FF00B228802C21614350
:103B7000644A8918486A08F025FC30602C216143AA
:103B8000604A8918886A08F01DFC3860002013B06C
:103B9000F0BDF3B589B05C480078002802D0002061
:103BA0000BB0F0BD5948C07D08905848007E079082
:103BB000574A12789300D118564A128D06235A4359
:103BC000104607F068FF0746534A12789300D11851
:103BD000504A528D06235A43104607F05CFF0646B2
:103BE0000998008804B20A98008805B2002006905F
:103BF0000590052004904042039005200290404229
:103C000001900898002830DDBC4208DAE01B0899D2
:103C100048438011C1190498081804B23EE03D4899
:103C2000008D001BB8420DDA3A48028D008D001B52
:103C3000C01B089948438011C019111A039808182D
:103C400004B22BE0314B19229A56324B1B8D5B107C
:103C50001B1B5A4310462F4A128D511007F01BFFB1
:103C600001190698081804B218E0BC4216DB29486E
:103C7000008DC01BA04211DB244B19229A56254B04
:103C80001B8D5B101B1B5A431046224A128D51108C
:103C900007F001FF01190698081804B207980028D8
:103CA0003CDDB54208DAA81B079948438011811909
:103CB0000298081805B24AE01648408D401BB042F1
:103CC0000DDA1448428D408D401B801B07994843F4
:103CD00080118019111A0198081805B237E00B4BB2
:103CE0001A229A560B4B5B8D5B105B1B5A43104696
:103CF000084A528D511007F0CEFE41190598081858
:103D000005B224E0AC08000061020000D43A0000D3
:103D100040030000E403000041030000B54216DB4D
:103D2000FE48408D801BA84211DBFD4B1A229A569B
:103D3000FA4B5B8D5B105B1B5A431046F74A528D62
:103D4000511007F0A8FE41190598081805B2099806
:103D500004600A980560002022E7FFB58FB00D4689
:103D600014461E46199F0F9808F076FB0E902846C1
:103D700008F072FB0D90204608F06EFB0C90304668
:103D800008F06AFB0B90189808F066FB0A9038461A
:103D900008F062FB0990BD4217DD1899081B08F076
:103DA0005BFB0590B81B08F057FB0490059904983D
:103DB00008F058FA08900E99089808F04BFD029008
:103DC0000D9908F001FD069016E00F99601A08F0B1
:103DD00043FB0590701B08F03FFB04900599049885
:103DE00008F040FA08900A99089808F033FD02900C
:103DF000099908F0E9FC06900C99089808F02AFD4A
:103E000002900B9908F07EFD0790089808F000FAE0
:103E1000002213460191009008F0A4FC01D1039404
:103E200011E001208007089908F014FD019007991E
:103E3000069808F073FD0090019908F013FA0290BB
:103E400008F0C0FA0390039813B0F0BDF0B593B03A
:103E500004460D4616461F46781B08F0FDFA1290E0
:103E60001899494322466243881A08F0F5FA1190DE
:103E70001999481B08F0F0FA109021466143324628
:103E80007243881A08F0E8FA0F900F99109808F01A
:103E9000E1FC07901199129808F0DCFC0690079954
:103EA00008F092FC0E901999681A08F0D5FA0D9056
:103EB000301B08F0D1FA0C90781B08F0CDFA0B906B
:103EC0001899081B08F0C8FA0A900A990B9808F08C
:103ED000C1FC02900C990D9808F0BCFC019002996D
:103EE00008F072FC039008F093F9002201239B076D
:103EF0000591049008F058F80791069007F06EFEBF
:103F00000990099808F084F9002213460791069059
:103F100008F028FC08D009990E9808F0A3F907903A
:103F200008F050FA089000E00896089813B0F0BD29
:103F3000F0B505AC70CC002806D1275E002F01DA61
:103F40000027278000271F80764F3F787F1E8742FB
:103F500007D10027DF5F002F01DA00271F8000272D
:103F60002780002906D1775E002F01DA00273780ED
:103F700000272F806C4F3F787F1C8F4207D100278E
:103F8000EF5F002F01DA00272F8000273780F0BD78
:103F9000F0B503460C461546002200210BE06348AD
:103FA0004069634E7656F6187600805F665C704313
:103FB0008218481C41B20429F1DB5C4840695E006C
:103FC000805F26797043821805210CE057484669C6
:103FD000481E574F3856C0184000305E665C70432C
:103FE0008218481C41B20929F0DB104628410246DC
:103FF00010B2F0BDFFB593B00646002006900590C4
:1040000004904C480178304607F045FD84B2494899
:1040100000786043301A85B2149800282CD04348A9
:1040200040690790424903200856801980B21290D7
:1040300004200856801980B21190701E80B2109032
:10404000701C80B20F9071000798405E0E9010981F
:1040500041000798415A0D91119841000798415A23
:104060000C91129841000798415A0B910F9841000A
:104070000798415A0A9136E01698427A014630462E
:10408000FFF786FF0E9016994A7A711E88B216992C
:10409000FFF77EFF0D9016994A7A711C88B2169927
:1040A000FFF776FF0A9016994A7A22490978711A21
:1040B00088B21699FFF76CFF0B9016994A7A1D4942
:1040C0000978711888B21699FFF762FF0C900AA858
:1040D0000DA90CAA0BAB00920191029069B260B2DB
:1040E0000E9AFFF725FF1598C007C00F00287DD056
:1040F00068462C21415E09910E9808906846302749
:10410000C75F09990898814205DD099808900898C9
:10411000B84200DA0897089909980DE0E403000016
:10412000D43A000040030000410300009008000062
:10413000030200004C020000884214D10898B842E3
:1041400011D1601C8000FE4909581C980160002CA8
:1041500004D0FC480078C01EA04202D1012017B054
:10416000F0BD0020FBE7F848807A002811D0A01CA1
:104170008000F349085801970090601C80000A589D
:10418000A00008580390089B0999FFF75FFE06906E
:1041900010E0A01C8000EA49085801970090601CBC
:1041A00080000A58A00008580390089B0999FFF75F
:1041B000D4FD06900698002801DA00200690E34816
:1041C00000788000DE490958E0480078401C8000F3
:1041D000DB4A105808184110069881420FDCDB4872
:1041E00000788000DA490958D84800E015E00078E6
:1041F000401C8000D64A10580818401006901C99A0
:1042000006980860002C04D0CE480078C01EA0425A
:1042100003D10498401C00B2049002211598084074
:1042200002287DD168463421415E09910E9808909C
:1042300068462827C75F09990898814205DD0998D3
:1042400008900898B84200DA0897089909988842B7
:1042500018D10898B84215D1681C8000BC4909588B
:104260001D980160002D09D0BA480078C01EBA49D7
:104270000978C907C90F401AA84201D102206EE788
:1042800000206CE7B048807A002811D0A81C80007C
:10429000AF49085801970090681C80000A58A80090
:1042A00008580390089B0999FFF7D0FD059010E08E
:1042B000A81C8000A649085801970090681C80003F
:1042C0000A58A80008580390089B0999FFF745FD74
:1042D00005900598002801DA002005909E48007896
:1042E00080009B4909589C480078401C8000984AEF
:1042F000105808184110059881420CDC9648007847
:1043000080001146095894480078401C80001058DD
:104310000818401005901D9905980860002D00E0D0
:104320000EE009D08B480078C01E8B490978C90778
:10433000C90F401AA84203D10498801C00B204900F
:1043400004980CE7F7B584B00D46164600BF2C2143
:1043500004984843814940181D27C7572C210498C9
:1043600048437E49085A0390FF21013103980840D1
:1043700000283FD030217943794A89180196009569
:10438000C98888B2774B01220021FFF733FE04462B
:10439000002C01DB012C0CD130217943704A8918A3
:1043A00001960095C98888B26E4B01221146FFF72D
:1043B00021FE302179436A4A891801960095C988FF
:1043C00088B2694B02220021FFF714FE0446002C3C
:1043D00001DB022C32D130217943614A89180196E0
:1043E0000095C98888B2604B02220121FFF702FEC6
:1043F000044623E030217943594A891801960095F3
:10440000C98888B2594B03220021FFF7F3FD044607
:10441000002C05DB012C03D0022C01D0032C0DD184
:10442000302179434E4A891801960095C98888B28F
:104430004E4B03220121FFF7DDFD0446204607B065
:10444000F0BDF0B5AFB000202A9001202590FDF717
:1044500085FA05900598801C0490059866300390B5
:1044600000210598017005984170684601764176F3
:104470000024D4E32C20604338490D5AFF20023039
:10448000284000287AD040202840002803D0482027
:104490002840482872D16846007E2B498978884296
:1044A0000ADB2C2060432D49085A402108432C2167
:1044B00061432A4A5052B0E32D48284000280BD0CF
:1044C0002C20604325494018C07F06210840002861
:1044D00002D000202749085527482840002819D035
:1044E0002C2060431D4940181821415E28912C2042
:1044F00060431A4940181A21415E27912C206043DD
:1045000016494018C08826902C2060434018807FB0
:104510002590A2E101208002284000286CD02C20A8
:1045200060430E4941181D200856302148430C496C
:1045300041180620085E29900648017829981EE057
:1045400070CC00104B020000103A00004003000045
:1045500030CD00104C02000041030000AC08000008
:10456000980400008CCE001096CE001078CE00107B
:1045700048080000701A00000C0A00004CE307F025
:104580008AFAC0B22C90FE4909782C9841432998A8
:10459000401AC0B22B902C206043FA494018416960
:1045A000F948FA4A1278805C81420BD22C20604391
:1045B000F44940184069401C2C216143F14A891894
:1045C00048612AE32C206043EE49085A0121890200
:1045D00088432C216143EB4A50522C206043114602
:1045E000085A202108432C21614350522C2060435B
:1045F00011460D5A012025902C206043E1494018B6
:104600001D26865730207043E1494018807A2A9051
:10461000FF2001302840002813D13020704340187B
:1046200080890421084000280BD130207043D849EC
:1046300040180A21415ED748D44A1278805C8142F2
:104640005DDC27AA28A92046FFF77CFE2D903021AB
:104650007143CF4A89180620085EC949097807F0D6
:104660001AFAC0B22C9030207043C94940188179A1
:10467000C34A12782C985043081AC0B22B902D9838
:1046800000282ADA30207043C1494018808904216B
:104690000840002812D02C98401C8000BE490858C1
:1046A000BE49497D084128902B98401C8000BC4998
:1046B0000858BA49897D0841279018E03020704396
:1046C000B34940182821415E289130207043B049F9
:1046D00040182A21415E279109E0B048417D289881
:1046E00008412890AD48817D279808412790FF20F8
:1046F00001302840002810D0022025900DE0302005
:104700007043A34940182821415E2891302070430E
:104710009F4940182A21415E279127A928A8FFF721
:1047200038FA302070439A4940184069974909780F
:104730004900954A143A515E401A0011934909788C
:104740004900515A4900401801B2269120A8182169
:10475000415EFF2901DDFF2002E020A91820085E4C
:1047600026902C20604387494018406901283BD09F
:104770002C206043401881892C206043814A801896
:1047800001822C2060431146401801892C2060438F
:10479000801881812C20604311464018C1892C204B
:1047A0006043801841822C206043114640184189A3
:1047B0002C2060438018C1812C2060431146401892
:1047C00040882899081A01B22C2060438018018182
:1047D0002C2060431146401880882799081A01B29E
:1047E0002C20604380184181289801B22C2060431E
:1047F000644A80184180279801B22C2060438018B9
:10480000818020202840002827D0289807F024FE07
:104810002C2161435B4A89184862279807F01CFEE7
:104820002C216143574A89188862289801B22C20AC
:10483000604380180183279801B22C2060438018C0
:10484000418320A81821415E2C2060438018C1803C
:104850002C2161438918259888772C206043494989
:1048600041181820085E2899401A40432C216143C2
:10487000444A8A181A21515E279A891A49434018D6
:104880002E902598012825D13F4812303F490978BC
:10489000405C40432E9988421CDB2C206043394900
:1048A0004018C07F022805D02C2060434018C07FEC
:1048B00006280FD12C206043324940181821415E50
:1048C00028912C2060432F4940181A21415E2791DE
:1048D00000202E90002708202840002808D0102013
:1048E000074300212C206043264A80182030417065
:1048F00020202840002802D0042007437CE02C21FF
:104900006143204A891808228A5E2C2161431D4B8D
:10491000C9180A23CB5ED1180291002901DB029944
:1049200001E002994942FF225F32914215DB2C21BE
:104930006143144A89180C228A5E2C216143114B71
:10494000C9180E23CB5ED018002801DB014600E019
:104950004142FF225F32914238DA26A827AB28AACB
:10496000294600902046FEF7F8FE2C2060430549BA
:1049700040181A302C216143024A8918183111E07D
:104980004C020000AC080000983A00000D02000044
:1049900098040000723A000070CC0010040400007B
:1049A00030CD001027AB28AA00910190294620465F
:1049B000FEF761FE0320FE4908760321FD480176DB
:1049C000FB484176FB48183041700AE01420F84952
:1049D00008761421F7480176F5484176F5481830F5
:1049E0004170F54800784100F448405A40432E9900
:1049F000884201DC082007432898002801DA0020BB
:104A00002890EF48008D2899884203DCEC48008DFF
:104A1000401E28902798002801DA00202790E848B7
:104A2000408D2799884203DCE548408D401E279041
:104A300027A828AB01940090E2480278394628461E
:104A4000FEF72AFD0746E0488078002856D02898CF
:104A500082B26846007E0C21484306A902310A5200
:104A6000279882B26846007E0C21484306A902318D
:104A70004018428020A8008B82B26846007E0C213C
:104A8000484306A902314018828020A8008B0028E4
:104A900001D1002200E02A9A6846017E0C204143A1
:104AA00006A802300818C28002203843C2B2684605
:104AB000007E0C21484306A9023140180272FF20F3
:104AC00001302840002801D0022200E0012268467F
:104AD000017E0C20414306A8023008184272684645
:104AE000007E0C21484306A90231401884726846B2
:104AF000007E401CC1B2684601766DE0042038405B
:104B0000002803D0B048C07900280FD010203840CA
:104B1000002803D0AC48407A002807D0082038404D
:104B2000002859D0A848007A002855D1289882B288
:104B30006846017E0C20414306A802304252279865
:104B400082B26846007E0C21484306A90231401813
:104B5000428020A8008B82B26846007E0C21484328
:104B600006A902314018828020A8008B002801D1BC
:104B7000002200E02A9A6846007E0C21484306A9DC
:104B800002314018C28002203843C2B26846007E1B
:104B90000C21484306A9023140180272FF2001305F
:104BA0002840002801D0022200E001226846007E51
:104BB0000C21484306A90231401842726846007E23
:104BC0000C21484306A90231401884726846007ED1
:104BD000401CC1B268460176289801B22C2060437F
:104BE0007A4A80180183279801B22C2060438018EC
:104BF000418320A81821415E2C2060438018C18089
:104C00002C21614389182598887702203843C1B246
:104C10002C2060438018C17700BF601CC4B20F2CE9
:104C200000DA27E46A480079002816D0002410E052
:104C30006348018D491E0C20604306AA0232105AB7
:104C4000081A82B20C20604306A902310A52601C85
:104C5000C4B26846007EA042EADC5D484079002884
:104C600018D0002412E05648418D491E0C206043A4
:104C700006AA023280184088081A82B20C206043CB
:104C800006A9023140184280601CC4B26846007E0A
:104C9000A042E8DC4E48C07800281BD0002415E074
:104CA0000C20604306A90231085A2E900C20604364
:104CB000401842880C2060430A520C21614306AA26
:104CC000023289182E984880601CC4B26846007E63
:104CD000A042E5DC002443E00C20604306A9023139
:104CE000085A01B2049801800C20604306A90231E1
:104CF0004018408801B2049841800C20604306A906
:104D0000023140188188049881800C20604306A9F4
:104D1000023140188179049881710C20604306A902
:104D200002314018017A0498C1710C20604306A931
:104D300002314018417A049801720C20604306A9A0
:104D400002314018817A0498417205980078401C1D
:104D5000C1B20598017004980A300490601CC4B276
:104D60006846007EA042B7DC00210598415E0846F7
:104D70002FB0F0BDFFB509AC70CC00280ED1215E7C
:104D8000002901DA0021218051002788C91B09B2BE
:104D900019800021595E914200DD1A800D49097881
:104DA000491E814224D10021595E002916DA13E000
:104DB000843A0000683A00000D020000143B000035
:104DC000E403000054020000C83A0000AC080000F0
:104DD000103A0000400300000021198051001F8894
:104DE000C91B09B221800021615E914200DD228051
:104DF000019900290ED1715E002901DA002131806C
:104E000051003788C91B09B229800021695E91428F
:104E100000DD2A800B490978491E019FB9420FD154
:104E20000021695E002901DA0021298051002F88C4
:104E3000C91B09B231800021715E914200DD3280D0
:104E4000FFBD000041030000002812D129204006C8
:104E500041690222114341618169FF22114381614D
:104E60004169FD22114041614169012211434161C3
:104E7000FEE77047F0B5002315E0828804685A43C6
:104E8000A61800220AE054009500345F4F59002C08
:104E900000DA64423C19521C4C51D2B2C47994429B
:104EA000F1D85B1CDBB282799A42E6D8F0BDFEB540
:104EB00006467A48694600780025887228462946C1
:104EC0008200401CC0B2B1505028F9D3002474486D
:104ED00021460078FCF734FE0746C007C00FC01912
:104EE000C0B200906846C772732189012046FCF762
:104EF00027FF01900098410068460181A8008119B0
:104F000001A8FFF7B7FFE819641CE4B2C5B2042C8E
:104F1000DDD3FEBDFEB562480078C107C90F081891
:104F2000C0B2604942005418A41DA10702D0E41C7D
:104F3000A408A40059490D780290801CC6B25A48B2
:104F40005A490078754342005118498A0191002856
:104F500002D15748FFF7ABFF002053E0524F41000A
:104F60000A193F780021BC467F000B46BE4605E08B
:104F70005F00D75F002F00DD79189B19AB42F7DB8C
:104F80006346002B10D0019B994239DB474F734693
:104F9000DB19DB884B4339466144897B67460B410B
:104FA0009E4639000CD019E0414F8300FB58009316
:104FB000019B9942EADA019F009BBB4220DBE5E7B7
:104FC0003A49009FCB88897B7B430B415900009174
:104FD000009B71469E4500DA19468E4600210DE081
:104FE0004B009C46D35E002B07DD7746734501DB03
:104FF000DB1B00E000236746D3538919A942EFDB8E
:10500000401CC0B202998842A8D3FEBD82E7704717
:10501000F0B523480278D007C00F8018C1B22148EC
:105020004B001818801D830702D0C01C8008800028
:10503000891CC9B28E46194B1E491B7809889C46AB
:10504000372904D31C490A23CB5E642B25DC0021BD
:1050500021E073464B435B001E180024254623467F
:105060000AE05F00F75F142F01DD641C64B2012CBD
:1050700000DD01255B1CDBB29342F2D300231C460A
:1050800005E0002D01D05F00F4535B1CDBB29342BE
:10509000F7D3491CC9B26145DBD3F0BD4003000022
:1050A00041030000903B00400D0200002C3A00003C
:1050B000801A0000D0030000780B0000FE48FD4974
:1050C0000160FE49C160FE490161FE494161FE493E
:1050D000C161FE498161FE49CA880285098941850D
:1050E000FC48F549007820314874FB4804220078D8
:1050F00088744A758A75FA49F84A0A60C30701D06C
:10510000C01C00E0801C88804000001D1018086052
:105110007047F34AE84806CA82604160F149F24BA1
:1051200009784A00D21892888285F04A1288C2858E
:10513000EF484118E0488A792030C2740979017536
:10514000EC49097D01747047F0B51446E9B08E460C
:105150008446002230201546454360462B18187BB4
:10516000C00720D05E89570056A8C65397003AA8BA
:105170005E69C651D6000AAF9869BF19D96903C7DD
:1051800022A9186A8E195F6A81C699785CA8815431
:10519000D97862A881546046415D5FA881545978EE
:1051A00065A8815403E00020530056A9C852521C40
:1051B000D2B20C2ACED3714600208A780CE083004C
:1051C000714659184B7946AD5B1E2B5409794EAB8D
:1051D000491E1954401CC0B28242F0D800216EE032
:1051E0004EAB46AD5E5C685CB446B04265D0654689
:1051F00056AB6D004600AE469F5B5D5B7F199F53CB
:10520000002675465E533AAB66468700B600DD5908
:105210009E59AD19DD51C3009E460AAD75446646E0
:1052200028CDF6000AAFBF190496C0CF9E197D4164
:105230000AAF77443E607D60734622ADEB181F686D
:105240005D68049E22AB9B191E685B68BE195D41B8
:10525000734622AFFB181E605D605CAD63462E5C3A
:10526000EB5C9E4200D22B5462AB65461E5C5D5DDA
:10527000AE4200D21D545FAB66461D5C9E5DB542DA
:1052800000D91E5465AB66461D5C9E5DB54200D9D3
:105290001E54481CC0B246AB4EAF0CE01E5C7D5C99
:1052A000AE4201D15E5C1E543E5CAE4201D15D5CFB
:1052B0003D54401CC0B28242F0D8491CC9B28A4257
:1052C0008ED8002525808C4860802846632656AB02
:1052D0003AAA4100595A00290BD02788B94201D96E
:1052E000218006466788B94203D261808100515807
:1052F000A160401CC0B20C28EBD3632E51D0B0008B
:10530000175862A86760805DA0735CA8805D2073F9
:1053100065A8805DE0735FA8805D60736648FB17D9
:1053200020300990407C3A462946089306F0EFFA6F
:105330000290F00003910AA9069009185E4E03C975
:10534000328D2B4606F0E3FA039B029A06F0F7FA39
:1053500000B220820290009009983A46807C29464B
:10536000089B06F0D4FA07460791069822A9091867
:1053700003C9728D2B4606F0CAFA3A46079B06F01F
:10538000DEFA01B261820098002801DA258205E088
:10539000308D029A824201DB401E2082002902DA0F
:1053A000658269B0F0BD708D8142FADB401E60827B
:1053B000F7E7F0B5514B00241D785E7827E02F19F0
:1053C000BF00FF187F798F421FD12C1964B2A5004E
:1053D000ED180626AE5F964200DAEA80002C13DA5A
:1053E0009C781E2C10D2A400E418E2809A789200D7
:1053F000D218107198788000C01841715878401CFC
:1054000058709878401C9870F0BD641CE4B2A642B5
:10541000D5D8E5E770B530256943C46830396118DF
:10542000048908255443E418CC800024E4430C810B
:1054300001248C818A700A700A71CB704B704B7199
:10544000455F5E0055436D004068AD19405F2C4DCF
:10545000920052194861526805465543EA178D611A
:10546000CA619A00274BD21852685043C2174A6249
:1054700008624C8170BD00222049012803D0887841
:1054800008704A7070470A70FBE7F0B50446A9B08F
:1054900000200C90207A214620311D90887C821CAF
:1054A000D6B222681018C01C26906069219020692D
:1054B000002529E090280040E40300009804000043
:1054C000D80600002C070000800700000808000034
:1054D000103A00004003000041030000903B0040F0
:1054E000380200000D020000843A0000140200009F
:1054F000AC3A0000D43A00002F7500001C040000F4
:1055000070CC001030CD00101190FE488570487CA2
:105510002590887C24900F2189012068FBF730F8C2
:10552000002081002269401C55506269C0B255506C
:105530001528F6D300203021414300220C31E368C6
:10554000401CC0B25A520C28F5D3002097E11D9997
:1055500062684843400010182890119921981190D2
:105560002191002001468300119A401CC0B2D15005
:105570001528F8D3019926987143401E08182090E9
:10558000002074E120982E22401C20900298A25EF8
:105590004100289809180020085E82427EDC029BA8
:1055A000219AD3185A78002A78D11D9A3E275200A2
:1055B0000E928A1A1546403DEF5F8742EEDC0025C9
:1055C000555F8542EADC0225555F8542E6DC0A46E6
:1055D000403A3E25555F8542E0DC02228A5E8242E7
:1055E000DCDC01229A700E9B3E275B181D46403D75
:1055F000EF5F8742D2DC029F119DEA550E9D495F05
:105600008142CBDC029D119949194A7002255D5FE8
:105610008542C3DC8A700C980C287CD2401C2790F1
:10562000C0B200900C98E1683022504308180C90EA
:1056300001200F90A16901980870E1690298087033
:1056400020990098087000250098FFF714FF6F4616
:105650000ECF2046FFF7DEFE03E0802801DB054683
:10566000F6E0A069415D1C91E069269B415D1F91B8
:105670001C991D9848431F99420048006168101802
:1056800040181C9932464A431F9959185118002254
:10569000825E6D1C0D922DB20E9A00E0E4E0821A3B
:1056A000944613920E9A8B1B1718821E801C16901C
:1056B000481E149705901592604603938A19801E20
:1056C0001790B81E049218906046801C1990581EBE
:1056D000491C0790BF1C501E5B1C521C0890069171
:1056E00000201A9709930A9207462290B90003A84E
:1056F00040588C460178002910D0009881420DD086
:10570000624613A880580022825E0D98824200DD16
:105710000246009800E0A3E0FFF74BFE614613A8A5
:1057200040580021415E0D98814208DD614603A882
:10573000405801780098814201D0012022907F1CBE
:105740007FB2082FD2DB229800287DD1810003AAE6
:1057500052581378002B74D113AB5B5800219C4630
:10576000595E2E23E35E99426BDB0D9B994268DC08
:105770000099117064490A5C1C99511849B21B9137
:10578000A3690F9A995461490A5C1F9951184BB249
:10579000E2690F999E4653540F996346491C09B21A
:1057A0000F910C99002249699A5E8A180C994A61F6
:1057B0001B99574A8900891800229A5E49680C9FF4
:1057C0005143BB69CA17FF69C9180C9B7A41DA615A
:1057D0009961734699004F4A0023891862464968C7
:1057E000D35E0C9F59433B6ACA177F6AC9180C9B4A
:1057F0007A415A6219620C990C9A4989491C518163
:105800000C9902228A561B998A4201DA0C9A9170ED
:105810000C9900228A561B998A4201DD0C9A11705C
:105820000C9903228A567146724502DA0A460C998F
:10583000CA700C9901228A567146724501DD0C9A94
:105840005170401C40B200E002E0082800DA7DE719
:105850000F98854200D000E72798C0B20C9003E073
:1058600025980190249802900298401CC0B2249977
:105870000290884200D285E60198401CC0B225996A
:105880000190884200D262E6234A1E49E068FFF791
:105890005BFC0C9829B0F0BD30B53024D368604370
:1058A000C0180624045F52686300D55E4B00D35EC7
:1058B000AB4202DB0481C18030BD0824045F002CB0
:1058C00003DB6400125F9342F6DD018130BDF7B562
:1058D00084460C4602983025C368614630206C43EC
:1058E0004143A646CA18E4185069656940195061D9
:1058F0009069A669D569E76986197D419661D56188
:10590000556A0BE01C0400001C0200002402000089
:1059100070CC001030CD0010D0030000106A266A51
:10592000676A86197D4116625562D089E5894019FA
:10593000D081108A258A40191082508965894019C2
:1059400050819089A589284390810020A081022060
:10595000022510566557A84200DA957003250320EA
:1059600055572056854200DAD07070465D5618565D
:10597000854200DD585401210120515620568142B4
:1059800000DD507006216046615EC0B2029AFFF7EA
:1059900083FF0821615E002904DB6046C0B2029AE1
:1059A000FFF77AFFFEBDF7B586B006980C46069A5B
:1059B0000021C5682032A148059209E08A0012182A
:1059C00013795B1E137153795B1E491C5371C9B265
:1059D00082788A42F2D8B8E00020844610793021DB
:1059E0004843401943895079484340194089181861
:1059F00081B20420105686460520105600900120E2
:105A000031E08E4A83009A1813793026029373434B
:105A10005B195E895379302701937B435B195B895E
:105A2000F3189BB28B4208D219460423D3568446FE
:105A30009E460523D356009313E08B4211D1029E5C
:105A40007E4B76450DD1019F009EB74209D10626B7
:105A5000965F62469200D2180623D35E9E4200DA19
:105A6000D680401CC0B2754A93788342C9D860463C
:105A7000810010460F1804260520BE5738560090A6
:105A8000864257D00698062142683020704340195C
:105A9000415E844648000099302359434919062342
:105AA000CB5E105E5B00D25E904200DD1046059A30
:105AB000D27C42430598007D02410620385E824236
:105AC00012DD604642690698808D82420CDD4A698B
:105AD000824209DD0A228A5E60460A21415E0598FB
:105AE0005118007C814225DB3146069A0098FFF769
:105AF000EEFE5249641E8878E4B2800040180288A5
:105B0000BA804088F8808878401E8870009A00200B
:105B1000D3B20BE0820052181779B74200D113714B
:105B20005779B74200D15371401CC0B28A78824283
:105B30000BD9EFE741488178890009180A88BA80B3
:105B40004988F9808178491E81703C4A9078002804
:105B500000D041E72746002613E030207843401963
:105B60000090007BC00708D109E030207043401945
:105B7000007BC0070CD0761C76B20C2EF5DB7F1CA8
:105B8000FFB20C2FE9D3002008990746086050E0C7
:105B900030207043401930220099FAF753FD00205D
:105BA0000099761C888176B2E9E73020784346195F
:105BB000307BC0073BD0706900900290C017019005
:105BC000F169B069019B009A05F0B9FE059A527D12
:105BD00005F08AFE00B2308504900390716A306A45
:105BE000019B009A05F0ABFE059A927D05F07CFEC4
:105BF00001B271850398002801DA002005E00698BB
:105C0000049A008D824201DB401E3085002901DAB2
:105C1000002004E00698408D814201DB401E708523
:105C2000089801680298814201DA089908607F1C8F
:105C3000FFB2A742B9D3204609B0F0BD1C04000052
:105C40005C4800218170491EC170017141718171F0
:105C50000A21016158498A8902810A894281098899
:105C6000818156490988C181554946200880554996
:105C7000022008807047F0B501460020012925D098
:105C800000224C4D4F4B2A704D4C1E8824884E4BA1
:105C90001146A4462C270C467C431F5BFF050FD5FD
:105CA000E4181D27E75730246743484C3C190A275E
:105CB000E75FB74204DC6469644501DC0120024609
:105CC000491CC9B20F29E5D32A70F0BDFFF7B8FF10
